{"abi":[{"inputs":[{"internalType":"address","name":"borrower","type":"address"},{"internalType":"uint256","name":"amount","type":"uint256"}],"name":"applyForCreditInterface","outputs":[],"stateMutability":"nonpayable","type":"function"},{"inputs":[],"name":"depositAmountInterface","outputs":[],"stateMutability":"payable","type":"function"},{"inputs":[],"name":"getApplicationsInterface","outputs":[{"components":[{"internalType":"bytes32","name":"id","type":"bytes32"},{"internalType":"address","name":"borrower","type":"address"},{"internalType":"uint256","name":"amount","type":"uint256"},{"internalType":"bool","name":"confirmed","type":"bool"},{"internalType":"uint256","name":"timestamp","type":"uint256"},{"internalType":"uint256","name":"duration_in_month","type":"uint256"}],"internalType":"struct CBorrow.Credit[]","name":"","type":"tuple[]"}],"stateMutability":"view","type":"function"},{"inputs":[],"name":"getDepositBalanceInterface","outputs":[{"internalType":"uint256","name":"","type":"uint256"}],"stateMutability":"view","type":"function"}],"bytecode":"60806040526000805534801561001457600080fd5b506104cf806100246000396000f3fe60806040526004361061003f5760003560e01c806335a0692914610044578063878de1f614610064578063bfb1d7a51461006e578063fa3a48fa1461008e575b600080fd5b34801561005057600080fd5b506040514781526020015b60405180910390f35b61006c6100b5565b005b34801561007a57600080fd5b5061006c610089366004610389565b6100ce565b34801561009a57600080fd5b506100a36100dc565b60405161005b91906103c1565b905090565b6100cc336000908152600660205260409020349055565b565b6100d882826100e6565b5050565b60606100b0610238565b604080516001600160a01b038416602082018190529181019190915242606082015260009060800160408051601f19818403018152828252805160209182012060c0840183528084526001600160a01b038088168584018181528686018981526000606089018181524260808b01908152600360a08c0181815289855260019a8b90529a84209b518c5594518b8a018054919098166001600160a01b031991821617909755925160028b015551898401805491151560ff1990921691909117905590516004808a0191909155965160059098019790975580548086019091557fc2575a0e9e593c00f959f8c92f12db2869c3395a3b0502d05e2516446f71f85b018054909216179055825491820183559183527f8a35acfbc15ff81a39ae7d344fd709f28e8600b4aa8c65c6b64bfe7fe36bd19b018190558154909250908061022e83610444565b9190505550505050565b60606000805467ffffffffffffffff8111156102565761025661046d565b6040519080825280602002602001820160405280156102b657816020015b6040805160c08101825260008082526020808301829052928201819052606082018190526080820181905260a082015282526000199092019101816102745790505b50905060005b60005481101561038357600060016000600484815481106102df576102df610483565b600091825260208083209091015483528281019390935260409182019020815160c0810183528154815260018201546001600160a01b031693810193909352600281015491830191909152600381015460ff161515606083015260048101546080830152600581015460a0830152845190925084908490811061036457610364610483565b602002602001018190525050808061037b90610444565b9150506102bc565b50919050565b6000806040838503121561039c57600080fd5b82356001600160a01b03811681146103b357600080fd5b946020939093013593505050565b602080825282518282018190526000919060409081850190868401855b8281101561043757815180518552868101516001600160a01b03168786015285810151868601526060808201511515908601526080808201519086015260a0908101519085015260c090930192908501906001016103de565b5091979650505050505050565b600060001982141561046657634e487b7160e01b600052601160045260246000fd5b5060010190565b634e487b7160e01b600052604160045260246000fd5b634e487b7160e01b600052603260045260246000fdfea2646970667358221220afd8357510135237b51b04f5899267187c677c3aeb1f4c4e6a6250d59bc025af64736f6c634300080c0033","bytecodeSha1":"2e8ece1cd5ca4bf6a4237502701a52300a120a88","compiler":{"evm_version":"istanbul","optimizer":{"enabled":true,"runs":200},"version":"0.8.12+commit.f00d7308"},"contractName":"CLendingManager","language":"Solidity","natspec":{"kind":"dev","methods":{},"version":1},"opcodes":"PUSH1 0x80 PUSH1 0x40 MSTORE PUSH1 0x4 CALLDATASIZE LT PUSH2 0x3F JUMPI PUSH1 0x0 CALLDATALOAD PUSH1 0xE0 SHR DUP1 PUSH4 0x35A06929 EQ PUSH2 0x44 JUMPI DUP1 PUSH4 0x878DE1F6 EQ PUSH2 0x64 JUMPI DUP1 PUSH4 0xBFB1D7A5 EQ PUSH2 0x6E JUMPI DUP1 PUSH4 0xFA3A48FA EQ PUSH2 0x8E JUMPI JUMPDEST PUSH1 0x0 DUP1 REVERT JUMPDEST CALLVALUE DUP1 ISZERO PUSH2 0x50 JUMPI PUSH1 0x0 DUP1 REVERT JUMPDEST POP PUSH1 0x40 MLOAD SELFBALANCE DUP2 MSTORE PUSH1 0x20 ADD JUMPDEST PUSH1 0x40 MLOAD DUP1 SWAP2 SUB SWAP1 RETURN JUMPDEST PUSH2 0x6C PUSH2 0xB5 JUMP JUMPDEST STOP JUMPDEST CALLVALUE DUP1 ISZERO PUSH2 0x7A JUMPI PUSH1 0x0 DUP1 REVERT JUMPDEST POP PUSH2 0x6C PUSH2 0x89 CALLDATASIZE PUSH1 0x4 PUSH2 0x389 JUMP JUMPDEST PUSH2 0xCE JUMP JUMPDEST CALLVALUE DUP1 ISZERO PUSH2 0x9A JUMPI PUSH1 0x0 DUP1 REVERT JUMPDEST POP PUSH2 0xA3 PUSH2 0xDC JUMP JUMPDEST PUSH1 0x40 MLOAD PUSH2 0x5B SWAP2 SWAP1 PUSH2 0x3C1 JUMP JUMPDEST SWAP1 POP SWAP1 JUMP JUMPDEST PUSH2 0xCC CALLER PUSH1 0x0 SWAP1 DUP2 MSTORE PUSH1 0x6 PUSH1 0x20 MSTORE PUSH1 0x40 SWAP1 KECCAK256 CALLVALUE SWAP1 SSTORE JUMP JUMPDEST JUMP JUMPDEST PUSH2 0xD8 DUP3 DUP3 PUSH2 0xE6 JUMP JUMPDEST POP POP JUMP JUMPDEST PUSH1 0x60 PUSH2 0xB0 PUSH2 0x238 JUMP JUMPDEST PUSH1 0x40 DUP1 MLOAD PUSH1 0x1 PUSH1 0x1 PUSH1 0xA0 SHL SUB DUP5 AND PUSH1 0x20 DUP3 ADD DUP2 SWAP1 MSTORE SWAP2 DUP2 ADD SWAP2 SWAP1 SWAP2 MSTORE TIMESTAMP PUSH1 0x60 DUP3 ADD MSTORE PUSH1 0x0 SWAP1 PUSH1 0x80 ADD PUSH1 0x40 DUP1 MLOAD PUSH1 0x1F NOT DUP2 DUP5 SUB ADD DUP2 MSTORE DUP3 DUP3 MSTORE DUP1 MLOAD PUSH1 0x20 SWAP2 DUP3 ADD KECCAK256 PUSH1 0xC0 DUP5 ADD DUP4 MSTORE DUP1 DUP5 MSTORE PUSH1 0x1 PUSH1 0x1 PUSH1 0xA0 SHL SUB DUP1 DUP9 AND DUP6 DUP5 ADD DUP2 DUP2 MSTORE DUP7 DUP7 ADD DUP10 DUP2 MSTORE PUSH1 0x0 PUSH1 0x60 DUP10 ADD DUP2 DUP2 MSTORE TIMESTAMP PUSH1 0x80 DUP12 ADD SWAP1 DUP2 MSTORE PUSH1 0x3 PUSH1 0xA0 DUP13 ADD DUP2 DUP2 MSTORE DUP10 DUP6 MSTORE PUSH1 0x1 SWAP11 DUP12 SWAP1 MSTORE SWAP11 DUP5 KECCAK256 SWAP12 MLOAD DUP13 SSTORE SWAP5 MLOAD DUP12 DUP11 ADD DUP1 SLOAD SWAP2 SWAP1 SWAP9 AND PUSH1 0x1 PUSH1 0x1 PUSH1 0xA0 SHL SUB NOT SWAP2 DUP3 AND OR SWAP1 SWAP8 SSTORE SWAP3 MLOAD PUSH1 0x2 DUP12 ADD SSTORE MLOAD DUP10 DUP5 ADD DUP1 SLOAD SWAP2 ISZERO ISZERO PUSH1 0xFF NOT SWAP1 SWAP3 AND SWAP2 SWAP1 SWAP2 OR SWAP1 SSTORE SWAP1 MLOAD PUSH1 0x4 DUP1 DUP11 ADD SWAP2 SWAP1 SWAP2 SSTORE SWAP7 MLOAD PUSH1 0x5 SWAP1 SWAP9 ADD SWAP8 SWAP1 SWAP8 SSTORE DUP1 SLOAD DUP1 DUP7 ADD SWAP1 SWAP2 SSTORE PUSH32 0xC2575A0E9E593C00F959F8C92F12DB2869C3395A3B0502D05E2516446F71F85B ADD DUP1 SLOAD SWAP1 SWAP3 AND OR SWAP1 SSTORE DUP3 SLOAD SWAP2 DUP3 ADD DUP4 SSTORE SWAP2 DUP4 MSTORE PUSH32 0x8A35ACFBC15FF81A39AE7D344FD709F28E8600B4AA8C65C6B64BFE7FE36BD19B ADD DUP2 SWAP1 SSTORE DUP2 SLOAD SWAP1 SWAP3 POP SWAP1 DUP1 PUSH2 0x22E DUP4 PUSH2 0x444 JUMP JUMPDEST SWAP2 SWAP1 POP SSTORE POP POP POP POP JUMP JUMPDEST PUSH1 0x60 PUSH1 0x0 DUP1 SLOAD PUSH8 0xFFFFFFFFFFFFFFFF DUP2 GT ISZERO PUSH2 0x256 JUMPI PUSH2 0x256 PUSH2 0x46D JUMP JUMPDEST PUSH1 0x40 MLOAD SWAP1 DUP1 DUP3 MSTORE DUP1 PUSH1 0x20 MUL PUSH1 0x20 ADD DUP3 ADD PUSH1 0x40 MSTORE DUP1 ISZERO PUSH2 0x2B6 JUMPI DUP2 PUSH1 0x20 ADD JUMPDEST PUSH1 0x40 DUP1 MLOAD PUSH1 0xC0 DUP2 ADD DUP3 MSTORE PUSH1 0x0 DUP1 DUP3 MSTORE PUSH1 0x20 DUP1 DUP4 ADD DUP3 SWAP1 MSTORE SWAP3 DUP3 ADD DUP2 SWAP1 MSTORE PUSH1 0x60 DUP3 ADD DUP2 SWAP1 MSTORE PUSH1 0x80 DUP3 ADD DUP2 SWAP1 MSTORE PUSH1 0xA0 DUP3 ADD MSTORE DUP3 MSTORE PUSH1 0x0 NOT SWAP1 SWAP3 ADD SWAP2 ADD DUP2 PUSH2 0x274 JUMPI SWAP1 POP JUMPDEST POP SWAP1 POP PUSH1 0x0 JUMPDEST PUSH1 0x0 SLOAD DUP2 LT ISZERO PUSH2 0x383 JUMPI PUSH1 0x0 PUSH1 0x1 PUSH1 0x0 PUSH1 0x4 DUP5 DUP2 SLOAD DUP2 LT PUSH2 0x2DF JUMPI PUSH2 0x2DF PUSH2 0x483 JUMP JUMPDEST PUSH1 0x0 SWAP2 DUP3 MSTORE PUSH1 0x20 DUP1 DUP4 KECCAK256 SWAP1 SWAP2 ADD SLOAD DUP4 MSTORE DUP3 DUP2 ADD SWAP4 SWAP1 SWAP4 MSTORE PUSH1 0x40 SWAP2 DUP3 ADD SWAP1 KECCAK256 DUP2 MLOAD PUSH1 0xC0 DUP2 ADD DUP4 MSTORE DUP2 SLOAD DUP2 MSTORE PUSH1 0x1 DUP3 ADD SLOAD PUSH1 0x1 PUSH1 0x1 PUSH1 0xA0 SHL SUB AND SWAP4 DUP2 ADD SWAP4 SWAP1 SWAP4 MSTORE PUSH1 0x2 DUP2 ADD SLOAD SWAP2 DUP4 ADD SWAP2 SWAP1 SWAP2 MSTORE PUSH1 0x3 DUP2 ADD SLOAD PUSH1 0xFF AND ISZERO ISZERO PUSH1 0x60 DUP4 ADD MSTORE PUSH1 0x4 DUP2 ADD SLOAD PUSH1 0x80 DUP4 ADD MSTORE PUSH1 0x5 DUP2 ADD SLOAD PUSH1 0xA0 DUP4 ADD MSTORE DUP5 MLOAD SWAP1 SWAP3 POP DUP5 SWAP1 DUP5 SWAP1 DUP2 LT PUSH2 0x364 JUMPI PUSH2 0x364 PUSH2 0x483 JUMP JUMPDEST PUSH1 0x20 MUL PUSH1 0x20 ADD ADD DUP2 SWAP1 MSTORE POP POP DUP1 DUP1 PUSH2 0x37B SWAP1 PUSH2 0x444 JUMP JUMPDEST SWAP2 POP POP PUSH2 0x2BC JUMP JUMPDEST POP SWAP2 SWAP1 POP JUMP JUMPDEST PUSH1 0x0 DUP1 PUSH1 0x40 DUP4 DUP6 SUB SLT ISZERO PUSH2 0x39C JUMPI PUSH1 0x0 DUP1 REVERT JUMPDEST DUP3 CALLDATALOAD PUSH1 0x1 PUSH1 0x1 PUSH1 0xA0 SHL SUB DUP2 AND DUP2 EQ PUSH2 0x3B3 JUMPI PUSH1 0x0 DUP1 REVERT JUMPDEST SWAP5 PUSH1 0x20 SWAP4 SWAP1 SWAP4 ADD CALLDATALOAD SWAP4 POP POP POP JUMP JUMPDEST PUSH1 0x20 DUP1 DUP3 MSTORE DUP3 MLOAD DUP3 DUP3 ADD DUP2 SWAP1 MSTORE PUSH1 0x0 SWAP2 SWAP1 PUSH1 0x40 SWAP1 DUP2 DUP6 ADD SWAP1 DUP7 DUP5 ADD DUP6 JUMPDEST DUP3 DUP2 LT ISZERO PUSH2 0x437 JUMPI DUP2 MLOAD DUP1 MLOAD DUP6 MSTORE DUP7 DUP2 ADD MLOAD PUSH1 0x1 PUSH1 0x1 PUSH1 0xA0 SHL SUB AND DUP8 DUP7 ADD MSTORE DUP6 DUP2 ADD MLOAD DUP7 DUP7 ADD MSTORE PUSH1 0x60 DUP1 DUP3 ADD MLOAD ISZERO ISZERO SWAP1 DUP7 ADD MSTORE PUSH1 0x80 DUP1 DUP3 ADD MLOAD SWAP1 DUP7 ADD MSTORE PUSH1 0xA0 SWAP1 DUP2 ADD MLOAD SWAP1 DUP6 ADD MSTORE PUSH1 0xC0 SWAP1 SWAP4 ADD SWAP3 SWAP1 DUP6 ADD SWAP1 PUSH1 0x1 ADD PUSH2 0x3DE JUMP JUMPDEST POP SWAP2 SWAP8 SWAP7 POP POP POP POP POP POP POP JUMP JUMPDEST PUSH1 0x0 PUSH1 0x0 NOT DUP3 EQ ISZERO PUSH2 0x466 JUMPI PUSH4 0x4E487B71 PUSH1 0xE0 SHL PUSH1 0x0 MSTORE PUSH1 0x11 PUSH1 0x4 MSTORE PUSH1 0x24 PUSH1 0x0 REVERT JUMPDEST POP PUSH1 0x1 ADD SWAP1 JUMP JUMPDEST PUSH4 0x4E487B71 PUSH1 0xE0 SHL PUSH1 0x0 MSTORE PUSH1 0x41 PUSH1 0x4 MSTORE PUSH1 0x24 PUSH1 0x0 REVERT JUMPDEST PUSH4 0x4E487B71 PUSH1 0xE0 SHL PUSH1 0x0 MSTORE PUSH1 0x32 PUSH1 0x4 MSTORE PUSH1 0x24 PUSH1 0x0 REVERT INVALID LOG2 PUSH5 0x6970667358 0x22 SLT KECCAK256 0xAF 0xD8 CALLDATALOAD PUSH22 0x10135237B51B04F5899267187C677C3AEB1F4C4E6A62 POP 0xD5 SWAP12 0xC0 0x25 0xAF PUSH5 0x736F6C6343 STOP ADDMOD 0xC STOP CALLER ","sha1":"5b598a1056f8e18398af68b7d6c85edddc2ff5da","source":"pragma solidity ^0.8.10;\n\nimport \"./CDeposit.sol\";\nimport \"./CBorrow.sol\";\n\n\ncontract CLendingManager is CBorrow, CDeposit{\n    \n    function applyForCreditInterface(address borrower, uint256 amount) public {\n        applyForCredit(borrower, amount);\n    }\n\n    function getApplicationsInterface() public view returns (Credit[] memory) {\n        return getApplications();\n    }\n\n    // Function to get the current count\n    function getDepositBalanceInterface() public view returns (uint) {\n        return getDepositBalance();\n    }\n\n    function depositAmountInterface() public payable {\n        depositAmount();\n    }\n\n}","sourcePath":"contracts/CLendingManager.sol","type":"contract","deployment":{"address":"0x1F829318F2B72A0B9dCF16A2d51827AFcd27539b","chainid":"5777","blockHeight":1}}