{"bytecode":"60806040526000805534801561001457600080fd5b5061051b806100246000396000f3fe60806040526004361061004a5760003560e01c80630497de4a1461004f578063419759f51461007157806343900e781461008a578063c5b2d967146100ac578063e798798d146100cc575b600080fd5b34801561005b57600080fd5b50475b6040519081526020015b60405180910390f35b610088336000908152600660205260409020349055565b005b34801561009657600080fd5b5061009f610102565b60405161006891906103a5565b3480156100b857600080fd5b506100886100c7366004610444565b610253565b3480156100d857600080fd5b5061005e6100e736600461046e565b6001600160a01b031660009081526006602052604090205490565b60606000805467ffffffffffffffff81111561012057610120610490565b60405190808252806020026020018201604052801561018057816020015b6040805160c08101825260008082526020808301829052928201819052606082018190526080820181905260a0820152825260001990920191018161013e5790505b50905060005b60005481101561024d57600060016000600484815481106101a9576101a96104a6565b600091825260208083209091015483528281019390935260409182019020815160c0810183528154815260018201546001600160a01b031693810193909352600281015491830191909152600381015460ff161515606083015260048101546080830152600581015460a0830152845190925084908490811061022e5761022e6104a6565b6020026020010181905250508080610245906104bc565b915050610186565b50919050565b604080516001600160a01b038416602082018190529181019190915242606082015260009060800160408051601f19818403018152828252805160209182012060c0840183528084526001600160a01b038088168584018181528686018981526000606089018181524260808b01908152600360a08c0181815289855260019a8b90529a84209b518c5594518b8a018054919098166001600160a01b031991821617909755925160028b015551898401805491151560ff1990921691909117905590516004808a0191909155965160059098019790975580548086019091557fc2575a0e9e593c00f959f8c92f12db2869c3395a3b0502d05e2516446f71f85b018054909216179055825491820183559183527f8a35acfbc15ff81a39ae7d344fd709f28e8600b4aa8c65c6b64bfe7fe36bd19b018190558154909250908061039b836104bc565b9190505550505050565b602080825282518282018190526000919060409081850190868401855b8281101561041b57815180518552868101516001600160a01b03168786015285810151868601526060808201511515908601526080808201519086015260a0908101519085015260c090930192908501906001016103c2565b5091979650505050505050565b80356001600160a01b038116811461043f57600080fd5b919050565b6000806040838503121561045757600080fd5b61046083610428565b946020939093013593505050565b60006020828403121561048057600080fd5b61048982610428565b9392505050565b634e487b7160e01b600052604160045260246000fd5b634e487b7160e01b600052603260045260246000fd5b60006000198214156104de57634e487b7160e01b600052601160045260246000fd5b506001019056fea2646970667358221220ccc507f93914acf7ad1a22ca000fe0a28004fb8031e414c3b2adb7128574b4c364736f6c634300080c0033","bytecodeSha1":"013ed3fcfea861fb21383aa4df67908597153f71","type":"contract","abi":[{"inputs":[{"internalType":"address","name":"borrower","type":"address"},{"internalType":"uint256","name":"amount","type":"uint256"}],"name":"applyForCredit","outputs":[],"stateMutability":"nonpayable","type":"function"},{"inputs":[],"name":"depositAmount","outputs":[],"stateMutability":"payable","type":"function"},{"inputs":[],"name":"getApplications","outputs":[{"components":[{"internalType":"bytes32","name":"id","type":"bytes32"},{"internalType":"address","name":"borrower","type":"address"},{"internalType":"uint256","name":"amount","type":"uint256"},{"internalType":"bool","name":"confirmed","type":"bool"},{"internalType":"uint256","name":"timestamp","type":"uint256"},{"internalType":"uint256","name":"duration_in_month","type":"uint256"}],"internalType":"struct CBorrow.Credit[]","name":"","type":"tuple[]"}],"stateMutability":"view","type":"function"},{"inputs":[],"name":"getDepositBalance","outputs":[{"internalType":"uint256","name":"","type":"uint256"}],"stateMutability":"view","type":"function"},{"inputs":[{"internalType":"address","name":"_addr","type":"address"}],"name":"getDepositFor","outputs":[{"internalType":"uint256","name":"","type":"uint256"}],"stateMutability":"view","type":"function"}],"compiler":{"version":"0.8.12+commit.f00d7308","evm_version":"istanbul","optimizer":{"enabled":true,"runs":200}},"contractName":"CLendingManager","language":"Solidity","natspec":{"methods":{},"kind":"dev","version":1},"opcodes":"PUSH1 0x80 PUSH1 0x40 MSTORE PUSH1 0x4 CALLDATASIZE LT PUSH2 0x4A JUMPI PUSH1 0x0 CALLDATALOAD PUSH1 0xE0 SHR DUP1 PUSH4 0x497DE4A EQ PUSH2 0x4F JUMPI DUP1 PUSH4 0x419759F5 EQ PUSH2 0x71 JUMPI DUP1 PUSH4 0x43900E78 EQ PUSH2 0x8A JUMPI DUP1 PUSH4 0xC5B2D967 EQ PUSH2 0xAC JUMPI DUP1 PUSH4 0xE798798D EQ PUSH2 0xCC JUMPI JUMPDEST PUSH1 0x0 DUP1 REVERT JUMPDEST CALLVALUE DUP1 ISZERO PUSH2 0x5B JUMPI PUSH1 0x0 DUP1 REVERT JUMPDEST POP SELFBALANCE JUMPDEST PUSH1 0x40 MLOAD SWAP1 DUP2 MSTORE PUSH1 0x20 ADD JUMPDEST PUSH1 0x40 MLOAD DUP1 SWAP2 SUB SWAP1 RETURN JUMPDEST PUSH2 0x88 CALLER PUSH1 0x0 SWAP1 DUP2 MSTORE PUSH1 0x6 PUSH1 0x20 MSTORE PUSH1 0x40 SWAP1 KECCAK256 CALLVALUE SWAP1 SSTORE JUMP JUMPDEST STOP JUMPDEST CALLVALUE DUP1 ISZERO PUSH2 0x96 JUMPI PUSH1 0x0 DUP1 REVERT JUMPDEST POP PUSH2 0x9F PUSH2 0x102 JUMP JUMPDEST PUSH1 0x40 MLOAD PUSH2 0x68 SWAP2 SWAP1 PUSH2 0x3A5 JUMP JUMPDEST CALLVALUE DUP1 ISZERO PUSH2 0xB8 JUMPI PUSH1 0x0 DUP1 REVERT JUMPDEST POP PUSH2 0x88 PUSH2 0xC7 CALLDATASIZE PUSH1 0x4 PUSH2 0x444 JUMP JUMPDEST PUSH2 0x253 JUMP JUMPDEST CALLVALUE DUP1 ISZERO PUSH2 0xD8 JUMPI PUSH1 0x0 DUP1 REVERT JUMPDEST POP PUSH2 0x5E PUSH2 0xE7 CALLDATASIZE PUSH1 0x4 PUSH2 0x46E JUMP JUMPDEST PUSH1 0x1 PUSH1 0x1 PUSH1 0xA0 SHL SUB AND PUSH1 0x0 SWAP1 DUP2 MSTORE PUSH1 0x6 PUSH1 0x20 MSTORE PUSH1 0x40 SWAP1 KECCAK256 SLOAD SWAP1 JUMP JUMPDEST PUSH1 0x60 PUSH1 0x0 DUP1 SLOAD PUSH8 0xFFFFFFFFFFFFFFFF DUP2 GT ISZERO PUSH2 0x120 JUMPI PUSH2 0x120 PUSH2 0x490 JUMP JUMPDEST PUSH1 0x40 MLOAD SWAP1 DUP1 DUP3 MSTORE DUP1 PUSH1 0x20 MUL PUSH1 0x20 ADD DUP3 ADD PUSH1 0x40 MSTORE DUP1 ISZERO PUSH2 0x180 JUMPI DUP2 PUSH1 0x20 ADD JUMPDEST PUSH1 0x40 DUP1 MLOAD PUSH1 0xC0 DUP2 ADD DUP3 MSTORE PUSH1 0x0 DUP1 DUP3 MSTORE PUSH1 0x20 DUP1 DUP4 ADD DUP3 SWAP1 MSTORE SWAP3 DUP3 ADD DUP2 SWAP1 MSTORE PUSH1 0x60 DUP3 ADD DUP2 SWAP1 MSTORE PUSH1 0x80 DUP3 ADD DUP2 SWAP1 MSTORE PUSH1 0xA0 DUP3 ADD MSTORE DUP3 MSTORE PUSH1 0x0 NOT SWAP1 SWAP3 ADD SWAP2 ADD DUP2 PUSH2 0x13E JUMPI SWAP1 POP JUMPDEST POP SWAP1 POP PUSH1 0x0 JUMPDEST PUSH1 0x0 SLOAD DUP2 LT ISZERO PUSH2 0x24D JUMPI PUSH1 0x0 PUSH1 0x1 PUSH1 0x0 PUSH1 0x4 DUP5 DUP2 SLOAD DUP2 LT PUSH2 0x1A9 JUMPI PUSH2 0x1A9 PUSH2 0x4A6 JUMP JUMPDEST PUSH1 0x0 SWAP2 DUP3 MSTORE PUSH1 0x20 DUP1 DUP4 KECCAK256 SWAP1 SWAP2 ADD SLOAD DUP4 MSTORE DUP3 DUP2 ADD SWAP4 SWAP1 SWAP4 MSTORE PUSH1 0x40 SWAP2 DUP3 ADD SWAP1 KECCAK256 DUP2 MLOAD PUSH1 0xC0 DUP2 ADD DUP4 MSTORE DUP2 SLOAD DUP2 MSTORE PUSH1 0x1 DUP3 ADD SLOAD PUSH1 0x1 PUSH1 0x1 PUSH1 0xA0 SHL SUB AND SWAP4 DUP2 ADD SWAP4 SWAP1 SWAP4 MSTORE PUSH1 0x2 DUP2 ADD SLOAD SWAP2 DUP4 ADD SWAP2 SWAP1 SWAP2 MSTORE PUSH1 0x3 DUP2 ADD SLOAD PUSH1 0xFF AND ISZERO ISZERO PUSH1 0x60 DUP4 ADD MSTORE PUSH1 0x4 DUP2 ADD SLOAD PUSH1 0x80 DUP4 ADD MSTORE PUSH1 0x5 DUP2 ADD SLOAD PUSH1 0xA0 DUP4 ADD MSTORE DUP5 MLOAD SWAP1 SWAP3 POP DUP5 SWAP1 DUP5 SWAP1 DUP2 LT PUSH2 0x22E JUMPI PUSH2 0x22E PUSH2 0x4A6 JUMP JUMPDEST PUSH1 0x20 MUL PUSH1 0x20 ADD ADD DUP2 SWAP1 MSTORE POP POP DUP1 DUP1 PUSH2 0x245 SWAP1 PUSH2 0x4BC JUMP JUMPDEST SWAP2 POP POP PUSH2 0x186 JUMP JUMPDEST POP SWAP2 SWAP1 POP JUMP JUMPDEST PUSH1 0x40 DUP1 MLOAD PUSH1 0x1 PUSH1 0x1 PUSH1 0xA0 SHL SUB DUP5 AND PUSH1 0x20 DUP3 ADD DUP2 SWAP1 MSTORE SWAP2 DUP2 ADD SWAP2 SWAP1 SWAP2 MSTORE TIMESTAMP PUSH1 0x60 DUP3 ADD MSTORE PUSH1 0x0 SWAP1 PUSH1 0x80 ADD PUSH1 0x40 DUP1 MLOAD PUSH1 0x1F NOT DUP2 DUP5 SUB ADD DUP2 MSTORE DUP3 DUP3 MSTORE DUP1 MLOAD PUSH1 0x20 SWAP2 DUP3 ADD KECCAK256 PUSH1 0xC0 DUP5 ADD DUP4 MSTORE DUP1 DUP5 MSTORE PUSH1 0x1 PUSH1 0x1 PUSH1 0xA0 SHL SUB DUP1 DUP9 AND DUP6 DUP5 ADD DUP2 DUP2 MSTORE DUP7 DUP7 ADD DUP10 DUP2 MSTORE PUSH1 0x0 PUSH1 0x60 DUP10 ADD DUP2 DUP2 MSTORE TIMESTAMP PUSH1 0x80 DUP12 ADD SWAP1 DUP2 MSTORE PUSH1 0x3 PUSH1 0xA0 DUP13 ADD DUP2 DUP2 MSTORE DUP10 DUP6 MSTORE PUSH1 0x1 SWAP11 DUP12 SWAP1 MSTORE SWAP11 DUP5 KECCAK256 SWAP12 MLOAD DUP13 SSTORE SWAP5 MLOAD DUP12 DUP11 ADD DUP1 SLOAD SWAP2 SWAP1 SWAP9 AND PUSH1 0x1 PUSH1 0x1 PUSH1 0xA0 SHL SUB NOT SWAP2 DUP3 AND OR SWAP1 SWAP8 SSTORE SWAP3 MLOAD PUSH1 0x2 DUP12 ADD SSTORE MLOAD DUP10 DUP5 ADD DUP1 SLOAD SWAP2 ISZERO ISZERO PUSH1 0xFF NOT SWAP1 SWAP3 AND SWAP2 SWAP1 SWAP2 OR SWAP1 SSTORE SWAP1 MLOAD PUSH1 0x4 DUP1 DUP11 ADD SWAP2 SWAP1 SWAP2 SSTORE SWAP7 MLOAD PUSH1 0x5 SWAP1 SWAP9 ADD SWAP8 SWAP1 SWAP8 SSTORE DUP1 SLOAD DUP1 DUP7 ADD SWAP1 SWAP2 SSTORE PUSH32 0xC2575A0E9E593C00F959F8C92F12DB2869C3395A3B0502D05E2516446F71F85B ADD DUP1 SLOAD SWAP1 SWAP3 AND OR SWAP1 SSTORE DUP3 SLOAD SWAP2 DUP3 ADD DUP4 SSTORE SWAP2 DUP4 MSTORE PUSH32 0x8A35ACFBC15FF81A39AE7D344FD709F28E8600B4AA8C65C6B64BFE7FE36BD19B ADD DUP2 SWAP1 SSTORE DUP2 SLOAD SWAP1 SWAP3 POP SWAP1 DUP1 PUSH2 0x39B DUP4 PUSH2 0x4BC JUMP JUMPDEST SWAP2 SWAP1 POP SSTORE POP POP POP POP JUMP JUMPDEST PUSH1 0x20 DUP1 DUP3 MSTORE DUP3 MLOAD DUP3 DUP3 ADD DUP2 SWAP1 MSTORE PUSH1 0x0 SWAP2 SWAP1 PUSH1 0x40 SWAP1 DUP2 DUP6 ADD SWAP1 DUP7 DUP5 ADD DUP6 JUMPDEST DUP3 DUP2 LT ISZERO PUSH2 0x41B JUMPI DUP2 MLOAD DUP1 MLOAD DUP6 MSTORE DUP7 DUP2 ADD MLOAD PUSH1 0x1 PUSH1 0x1 PUSH1 0xA0 SHL SUB AND DUP8 DUP7 ADD MSTORE DUP6 DUP2 ADD MLOAD DUP7 DUP7 ADD MSTORE PUSH1 0x60 DUP1 DUP3 ADD MLOAD ISZERO ISZERO SWAP1 DUP7 ADD MSTORE PUSH1 0x80 DUP1 DUP3 ADD MLOAD SWAP1 DUP7 ADD MSTORE PUSH1 0xA0 SWAP1 DUP2 ADD MLOAD SWAP1 DUP6 ADD MSTORE PUSH1 0xC0 SWAP1 SWAP4 ADD SWAP3 SWAP1 DUP6 ADD SWAP1 PUSH1 0x1 ADD PUSH2 0x3C2 JUMP JUMPDEST POP SWAP2 SWAP8 SWAP7 POP POP POP POP POP POP POP JUMP JUMPDEST DUP1 CALLDATALOAD PUSH1 0x1 PUSH1 0x1 PUSH1 0xA0 SHL SUB DUP2 AND DUP2 EQ PUSH2 0x43F JUMPI PUSH1 0x0 DUP1 REVERT JUMPDEST SWAP2 SWAP1 POP JUMP JUMPDEST PUSH1 0x0 DUP1 PUSH1 0x40 DUP4 DUP6 SUB SLT ISZERO PUSH2 0x457 JUMPI PUSH1 0x0 DUP1 REVERT JUMPDEST PUSH2 0x460 DUP4 PUSH2 0x428 JUMP JUMPDEST SWAP5 PUSH1 0x20 SWAP4 SWAP1 SWAP4 ADD CALLDATALOAD SWAP4 POP POP POP JUMP JUMPDEST PUSH1 0x0 PUSH1 0x20 DUP3 DUP5 SUB SLT ISZERO PUSH2 0x480 JUMPI PUSH1 0x0 DUP1 REVERT JUMPDEST PUSH2 0x489 DUP3 PUSH2 0x428 JUMP JUMPDEST SWAP4 SWAP3 POP POP POP JUMP JUMPDEST PUSH4 0x4E487B71 PUSH1 0xE0 SHL PUSH1 0x0 MSTORE PUSH1 0x41 PUSH1 0x4 MSTORE PUSH1 0x24 PUSH1 0x0 REVERT JUMPDEST PUSH4 0x4E487B71 PUSH1 0xE0 SHL PUSH1 0x0 MSTORE PUSH1 0x32 PUSH1 0x4 MSTORE PUSH1 0x24 PUSH1 0x0 REVERT JUMPDEST PUSH1 0x0 PUSH1 0x0 NOT DUP3 EQ ISZERO PUSH2 0x4DE JUMPI PUSH4 0x4E487B71 PUSH1 0xE0 SHL PUSH1 0x0 MSTORE PUSH1 0x11 PUSH1 0x4 MSTORE PUSH1 0x24 PUSH1 0x0 REVERT JUMPDEST POP PUSH1 0x1 ADD SWAP1 JUMP INVALID LOG2 PUSH5 0x6970667358 0x22 SLT KECCAK256 0xCC 0xC5 SMOD 0xF9 CODECOPY EQ 0xAC 0xF7 0xAD BYTE 0x22 0xCA STOP 0xF 0xE0 LOG2 DUP1 DIV 0xFB DUP1 BALANCE 0xE4 EQ 0xC3 0xB2 0xAD 0xB7 SLT DUP6 PUSH21 0xB4C364736F6C634300080C00330000000000000000 ","sha1":"6867ff1d2101f765881933ebc101a8af75b9bde2","source":"pragma solidity ^0.8.10;\n\nimport \"./CDeposit.sol\";\nimport \"./CBorrow.sol\";\n\n\ncontract CLendingManager is CBorrow, CDeposit{\n    \n   \n\n}","sourcePath":"contracts/CLendingManager.sol","deployment":{"address":"0x771922cbDC7C4d354ebfBF2fDB9eA0045ae03C95","chainid":"5777","blockHeight":4}}