{
  "abi": [
    {
      "anonymous": false,
      "inputs": [
        {
          "indexed": false,
          "internalType": "uint256",
          "name": "",
          "type": "uint256"
        }
      ],
      "name": "Debug",
      "type": "event"
    },
    {
      "inputs": [
        {
          "internalType": "uint256",
          "name": "duration_in_month",
          "type": "uint256"
        }
      ],
      "name": "addDeposit",
      "outputs": [],
      "stateMutability": "payable",
      "type": "function"
    },
    {
      "inputs": [
        {
          "internalType": "bytes32",
          "name": "_key",
          "type": "bytes32"
        }
      ],
      "name": "containsDeposit",
      "outputs": [
        {
          "internalType": "bool",
          "name": "",
          "type": "bool"
        }
      ],
      "stateMutability": "view",
      "type": "function"
    },
    {
      "inputs": [],
      "name": "getAllDeposits",
      "outputs": [
        {
          "components": [
            {
              "internalType": "bytes32",
              "name": "key",
              "type": "bytes32"
            },
            {
              "internalType": "address",
              "name": "depositor",
              "type": "address"
            },
            {
              "internalType": "uint256",
              "name": "amount",
              "type": "uint256"
            },
            {
              "internalType": "uint256",
              "name": "timestamp",
              "type": "uint256"
            },
            {
              "internalType": "uint256",
              "name": "duration_in_month",
              "type": "uint256"
            }
          ],
          "internalType": "struct Deposit[]",
          "name": "",
          "type": "tuple[]"
        }
      ],
      "stateMutability": "view",
      "type": "function"
    },
    {
      "inputs": [],
      "name": "getDepositAddresses",
      "outputs": [
        {
          "internalType": "address[]",
          "name": "",
          "type": "address[]"
        }
      ],
      "stateMutability": "view",
      "type": "function"
    },
    {
      "inputs": [
        {
          "internalType": "bytes32",
          "name": "_key",
          "type": "bytes32"
        }
      ],
      "name": "getDepositByKey",
      "outputs": [
        {
          "components": [
            {
              "internalType": "bytes32",
              "name": "key",
              "type": "bytes32"
            },
            {
              "internalType": "address",
              "name": "depositor",
              "type": "address"
            },
            {
              "internalType": "uint256",
              "name": "amount",
              "type": "uint256"
            },
            {
              "internalType": "uint256",
              "name": "timestamp",
              "type": "uint256"
            },
            {
              "internalType": "uint256",
              "name": "duration_in_month",
              "type": "uint256"
            }
          ],
          "internalType": "struct Deposit",
          "name": "",
          "type": "tuple"
        }
      ],
      "stateMutability": "view",
      "type": "function"
    },
    {
      "inputs": [],
      "name": "getDepositKeys",
      "outputs": [
        {
          "internalType": "bytes32[]",
          "name": "",
          "type": "bytes32[]"
        }
      ],
      "stateMutability": "view",
      "type": "function"
    },
    {
      "inputs": [
        {
          "internalType": "address",
          "name": "_address",
          "type": "address"
        }
      ],
      "name": "getDepositbyAddress",
      "outputs": [
        {
          "components": [
            {
              "internalType": "bytes32",
              "name": "key",
              "type": "bytes32"
            },
            {
              "internalType": "address",
              "name": "depositor",
              "type": "address"
            },
            {
              "internalType": "uint256",
              "name": "amount",
              "type": "uint256"
            },
            {
              "internalType": "uint256",
              "name": "timestamp",
              "type": "uint256"
            },
            {
              "internalType": "uint256",
              "name": "duration_in_month",
              "type": "uint256"
            }
          ],
          "internalType": "struct Deposit[]",
          "name": "",
          "type": "tuple[]"
        }
      ],
      "stateMutability": "view",
      "type": "function"
    },
    {
      "inputs": [
        {
          "internalType": "bytes32",
          "name": "_key",
          "type": "bytes32"
        }
      ],
      "name": "removeDeposit",
      "outputs": [],
      "stateMutability": "nonpayable",
      "type": "function"
    },
    {
      "inputs": [],
      "name": "sizeDeposit",
      "outputs": [
        {
          "internalType": "uint256",
          "name": "",
          "type": "uint256"
        }
      ],
      "stateMutability": "view",
      "type": "function"
    }
  ],
  "bytecode": "608060405234801561001057600080fd5b50610c33806100206000396000f3fe6080604052600436106100865760003560e01c8063a6f1fd5111610059578063a6f1fd511461013f578063cc7985b614610152578063d0b2c6f214610174578063d3f3f5ea14610196578063e2a30f16146101ab57600080fd5b80632a3130c41461008b578063358876cf146100ae5780637a4b4190146100d057806387d6578214610112575b600080fd5b34801561009757600080fd5b506001546040519081526020015b60405180910390f35b3480156100ba57600080fd5b506100ce6100c9366004610a32565b610211565b005b3480156100dc57600080fd5b506101026100eb366004610a32565b600090815260208190526040902060030154151590565b60405190151581526020016100a5565b34801561011e57600080fd5b5061013261012d366004610a4b565b610445565b6040516100a59190610a7b565b6100ce61014d366004610a32565b610635565b34801561015e57600080fd5b506101676107ca565b6040516100a59190610afa565b34801561018057600080fd5b5061018961082c565b6040516100a59190610b3b565b3480156101a257600080fd5b50610132610883565b3480156101b757600080fd5b506101cb6101c6366004610a32565b610999565b6040516100a59190815181526020808301516001600160a01b03169082015260408083015190820152606080830151908201526080918201519181019190915260a00190565b6000818152602081905260408120600101546001600160a01b03169080805b60025481101561029557836001600160a01b03166002828154811061025757610257610b73565b6000918252602090912001546001600160a01b03161415610283578261027c81610b9f565b9350508091505b8061028d81610b9f565b915050610230565b50816001141561034d57600280546102af90600190610bba565b815481106102bf576102bf610b73565b600091825260209091200154600280546001600160a01b0390921691839081106102eb576102eb610b73565b9060005260206000200160006101000a8154816001600160a01b0302191690836001600160a01b03160217905550600280548061032a5761032a610bd1565b600082815260209020810160001990810180546001600160a01b03191690550190555b60005b60015481101561039557846001828154811061036e5761036e610b73565b90600052602060002001541415610383578091505b8061038d81610b9f565b915050610350565b50600180546103a5908290610bba565b815481106103b5576103b5610b73565b9060005260206000200154600182815481106103d3576103d3610b73565b60009182526020909120015560018054806103f0576103f0610bd1565b600082815260208082208301600019908101839055909201909255948152938490525050604082208281556001810180546001600160a01b031916905560028101839055600381018390556004019190915550565b60606000805b6001548110156104c357836001600160a01b03166000806001848154811061047557610475610b73565b600091825260208083209091015483528201929092526040019020600101546001600160a01b031614156104b157816104ad81610b9f565b9250505b806104bb81610b9f565b91505061044b565b5060008167ffffffffffffffff8111156104df576104df610be7565b60405190808252806020026020018201604052801561051857816020015b6105056109f7565b8152602001906001900390816104fd5790505b5090506000805b60015481101561062b57856001600160a01b03166000806001848154811061054957610549610b73565b600091825260208083209091015483528201929092526040019020600101546001600160a01b03161415610619576000806001838154811061058d5761058d610b73565b600091825260208083209091015483528281019390935260409182019020815160a0810183528154815260018201546001600160a01b0316938101939093526002810154918301919091526003810154606083015260040154608082015283518490849081106105ff576105ff610b73565b6020026020010181905250818061061590610b9f565b9250505b8061062381610b9f565b91505061051f565b5090949350505050565b6000334261064260015490565b604080516001600160a01b039094166020850152830191909152606082015260800160408051808303601f19018152828252805160209182012060a0840183528084523382850190815234858501908152426060870190815260808701898152600085815295869052958520875181559251600180850180546001600160a01b0319166001600160a01b0390931692909217909155915160028401555160038301559351600490910155825480840184559282527fb10e2d527612073b26eecdfd717e6a320cf44b4afac2b0732d9fcbe2b7fa0cf6909201829055909250805b60025481101561077b57336001600160a01b03166002828154811061074957610749610b73565b6000918252602090912001546001600160a01b0316141561076957600191505b8061077381610b9f565b915050610722565b50806107c457600280546001810182556000919091527f405787fa12a823e0f2b7631cc41b3ba8828b3321ca811111fa75cd3aa3bb5ace0180546001600160a01b031916331790555b50505050565b6060600280548060200260200160405190810160405280929190818152602001828054801561082257602002820191906000526020600020905b81546001600160a01b03168152600190910190602001808311610804575b5050505050905090565b6060600180548060200260200160405190810160405280929190818152602001828054801561082257602002820191906000526020600020905b815481526020019060010190808311610866575050505050905090565b60015460609060009067ffffffffffffffff8111156108a4576108a4610be7565b6040519080825280602002602001820160405280156108dd57816020015b6108ca6109f7565b8152602001906001900390816108c25790505b50905060005b600154811015610993576000806001838154811061090357610903610b73565b600091825260208083209091015483528281019390935260409182019020815160a0810183528154815260018201546001600160a01b03169381019390935260028101549183019190915260038101546060830152600401546080820152825183908390811061097557610975610b73565b6020026020010181905250808061098b90610b9f565b9150506108e3565b50919050565b6109a16109f7565b5060009081526020818152604091829020825160a0810184528154815260018201546001600160a01b03169281019290925260028101549282019290925260038201546060820152600490910154608082015290565b6040518060a001604052806000801916815260200160006001600160a01b031681526020016000815260200160008152602001600081525090565b600060208284031215610a4457600080fd5b5035919050565b600060208284031215610a5d57600080fd5b81356001600160a01b0381168114610a7457600080fd5b9392505050565b6020808252825182820181905260009190848201906040850190845b81811015610aee57610adb838551805182526020808201516001600160a01b0316908301526040808201519083015260608082015190830152608090810151910152565b9284019260a09290920191600101610a97565b50909695505050505050565b6020808252825182820181905260009190848201906040850190845b81811015610aee5783516001600160a01b031683529284019291840191600101610b16565b6020808252825182820181905260009190848201906040850190845b81811015610aee57835183529284019291840191600101610b57565b634e487b7160e01b600052603260045260246000fd5b634e487b7160e01b600052601160045260246000fd5b6000600019821415610bb357610bb3610b89565b5060010190565b600082821015610bcc57610bcc610b89565b500390565b634e487b7160e01b600052603160045260246000fd5b634e487b7160e01b600052604160045260246000fdfea2646970667358221220a1449d4d44432be10a3192970cff9a04cc1bed44a8d10f8cd2d3958dc42a387f64736f6c634300080b0033",
  "bytecodeSha1": "c80cae97f59882b24b8f0ad987cce5dee3eca230",
  "compiler": {
    "evm_version": "istanbul",
    "optimizer": {
      "enabled": true,
      "runs": 200
    },
    "version": "0.8.11+commit.d7f03943"
  },
  "contractName": "CDeposit",
  "language": "Solidity",
  "natspec": {
    "kind": "dev",
    "methods": {},
    "version": 1
  },
  "opcodes": "PUSH1 0x80 PUSH1 0x40 MSTORE PUSH1 0x4 CALLDATASIZE LT PUSH2 0x86 JUMPI PUSH1 0x0 CALLDATALOAD PUSH1 0xE0 SHR DUP1 PUSH4 0xA6F1FD51 GT PUSH2 0x59 JUMPI DUP1 PUSH4 0xA6F1FD51 EQ PUSH2 0x13F JUMPI DUP1 PUSH4 0xCC7985B6 EQ PUSH2 0x152 JUMPI DUP1 PUSH4 0xD0B2C6F2 EQ PUSH2 0x174 JUMPI DUP1 PUSH4 0xD3F3F5EA EQ PUSH2 0x196 JUMPI DUP1 PUSH4 0xE2A30F16 EQ PUSH2 0x1AB JUMPI PUSH1 0x0 DUP1 REVERT JUMPDEST DUP1 PUSH4 0x2A3130C4 EQ PUSH2 0x8B JUMPI DUP1 PUSH4 0x358876CF EQ PUSH2 0xAE JUMPI DUP1 PUSH4 0x7A4B4190 EQ PUSH2 0xD0 JUMPI DUP1 PUSH4 0x87D65782 EQ PUSH2 0x112 JUMPI JUMPDEST PUSH1 0x0 DUP1 REVERT JUMPDEST CALLVALUE DUP1 ISZERO PUSH2 0x97 JUMPI PUSH1 0x0 DUP1 REVERT JUMPDEST POP PUSH1 0x1 SLOAD PUSH1 0x40 MLOAD SWAP1 DUP2 MSTORE PUSH1 0x20 ADD JUMPDEST PUSH1 0x40 MLOAD DUP1 SWAP2 SUB SWAP1 RETURN JUMPDEST CALLVALUE DUP1 ISZERO PUSH2 0xBA JUMPI PUSH1 0x0 DUP1 REVERT JUMPDEST POP PUSH2 0xCE PUSH2 0xC9 CALLDATASIZE PUSH1 0x4 PUSH2 0xA32 JUMP JUMPDEST PUSH2 0x211 JUMP JUMPDEST STOP JUMPDEST CALLVALUE DUP1 ISZERO PUSH2 0xDC JUMPI PUSH1 0x0 DUP1 REVERT JUMPDEST POP PUSH2 0x102 PUSH2 0xEB CALLDATASIZE PUSH1 0x4 PUSH2 0xA32 JUMP JUMPDEST PUSH1 0x0 SWAP1 DUP2 MSTORE PUSH1 0x20 DUP2 SWAP1 MSTORE PUSH1 0x40 SWAP1 KECCAK256 PUSH1 0x3 ADD SLOAD ISZERO ISZERO SWAP1 JUMP JUMPDEST PUSH1 0x40 MLOAD SWAP1 ISZERO ISZERO DUP2 MSTORE PUSH1 0x20 ADD PUSH2 0xA5 JUMP JUMPDEST CALLVALUE DUP1 ISZERO PUSH2 0x11E JUMPI PUSH1 0x0 DUP1 REVERT JUMPDEST POP PUSH2 0x132 PUSH2 0x12D CALLDATASIZE PUSH1 0x4 PUSH2 0xA4B JUMP JUMPDEST PUSH2 0x445 JUMP JUMPDEST PUSH1 0x40 MLOAD PUSH2 0xA5 SWAP2 SWAP1 PUSH2 0xA7B JUMP JUMPDEST PUSH2 0xCE PUSH2 0x14D CALLDATASIZE PUSH1 0x4 PUSH2 0xA32 JUMP JUMPDEST PUSH2 0x635 JUMP JUMPDEST CALLVALUE DUP1 ISZERO PUSH2 0x15E JUMPI PUSH1 0x0 DUP1 REVERT JUMPDEST POP PUSH2 0x167 PUSH2 0x7CA JUMP JUMPDEST PUSH1 0x40 MLOAD PUSH2 0xA5 SWAP2 SWAP1 PUSH2 0xAFA JUMP JUMPDEST CALLVALUE DUP1 ISZERO PUSH2 0x180 JUMPI PUSH1 0x0 DUP1 REVERT JUMPDEST POP PUSH2 0x189 PUSH2 0x82C JUMP JUMPDEST PUSH1 0x40 MLOAD PUSH2 0xA5 SWAP2 SWAP1 PUSH2 0xB3B JUMP JUMPDEST CALLVALUE DUP1 ISZERO PUSH2 0x1A2 JUMPI PUSH1 0x0 DUP1 REVERT JUMPDEST POP PUSH2 0x132 PUSH2 0x883 JUMP JUMPDEST CALLVALUE DUP1 ISZERO PUSH2 0x1B7 JUMPI PUSH1 0x0 DUP1 REVERT JUMPDEST POP PUSH2 0x1CB PUSH2 0x1C6 CALLDATASIZE PUSH1 0x4 PUSH2 0xA32 JUMP JUMPDEST PUSH2 0x999 JUMP JUMPDEST PUSH1 0x40 MLOAD PUSH2 0xA5 SWAP2 SWAP1 DUP2 MLOAD DUP2 MSTORE PUSH1 0x20 DUP1 DUP4 ADD MLOAD PUSH1 0x1 PUSH1 0x1 PUSH1 0xA0 SHL SUB AND SWAP1 DUP3 ADD MSTORE PUSH1 0x40 DUP1 DUP4 ADD MLOAD SWAP1 DUP3 ADD MSTORE PUSH1 0x60 DUP1 DUP4 ADD MLOAD SWAP1 DUP3 ADD MSTORE PUSH1 0x80 SWAP2 DUP3 ADD MLOAD SWAP2 DUP2 ADD SWAP2 SWAP1 SWAP2 MSTORE PUSH1 0xA0 ADD SWAP1 JUMP JUMPDEST PUSH1 0x0 DUP2 DUP2 MSTORE PUSH1 0x20 DUP2 SWAP1 MSTORE PUSH1 0x40 DUP2 KECCAK256 PUSH1 0x1 ADD SLOAD PUSH1 0x1 PUSH1 0x1 PUSH1 0xA0 SHL SUB AND SWAP1 DUP1 DUP1 JUMPDEST PUSH1 0x2 SLOAD DUP2 LT ISZERO PUSH2 0x295 JUMPI DUP4 PUSH1 0x1 PUSH1 0x1 PUSH1 0xA0 SHL SUB AND PUSH1 0x2 DUP3 DUP2 SLOAD DUP2 LT PUSH2 0x257 JUMPI PUSH2 0x257 PUSH2 0xB73 JUMP JUMPDEST PUSH1 0x0 SWAP2 DUP3 MSTORE PUSH1 0x20 SWAP1 SWAP2 KECCAK256 ADD SLOAD PUSH1 0x1 PUSH1 0x1 PUSH1 0xA0 SHL SUB AND EQ ISZERO PUSH2 0x283 JUMPI DUP3 PUSH2 0x27C DUP2 PUSH2 0xB9F JUMP JUMPDEST SWAP4 POP POP DUP1 SWAP2 POP JUMPDEST DUP1 PUSH2 0x28D DUP2 PUSH2 0xB9F JUMP JUMPDEST SWAP2 POP POP PUSH2 0x230 JUMP JUMPDEST POP DUP2 PUSH1 0x1 EQ ISZERO PUSH2 0x34D JUMPI PUSH1 0x2 DUP1 SLOAD PUSH2 0x2AF SWAP1 PUSH1 0x1 SWAP1 PUSH2 0xBBA JUMP JUMPDEST DUP2 SLOAD DUP2 LT PUSH2 0x2BF JUMPI PUSH2 0x2BF PUSH2 0xB73 JUMP JUMPDEST PUSH1 0x0 SWAP2 DUP3 MSTORE PUSH1 0x20 SWAP1 SWAP2 KECCAK256 ADD SLOAD PUSH1 0x2 DUP1 SLOAD PUSH1 0x1 PUSH1 0x1 PUSH1 0xA0 SHL SUB SWAP1 SWAP3 AND SWAP2 DUP4 SWAP1 DUP2 LT PUSH2 0x2EB JUMPI PUSH2 0x2EB PUSH2 0xB73 JUMP JUMPDEST SWAP1 PUSH1 0x0 MSTORE PUSH1 0x20 PUSH1 0x0 KECCAK256 ADD PUSH1 0x0 PUSH2 0x100 EXP DUP2 SLOAD DUP2 PUSH1 0x1 PUSH1 0x1 PUSH1 0xA0 SHL SUB MUL NOT AND SWAP1 DUP4 PUSH1 0x1 PUSH1 0x1 PUSH1 0xA0 SHL SUB AND MUL OR SWAP1 SSTORE POP PUSH1 0x2 DUP1 SLOAD DUP1 PUSH2 0x32A JUMPI PUSH2 0x32A PUSH2 0xBD1 JUMP JUMPDEST PUSH1 0x0 DUP3 DUP2 MSTORE PUSH1 0x20 SWAP1 KECCAK256 DUP2 ADD PUSH1 0x0 NOT SWAP1 DUP2 ADD DUP1 SLOAD PUSH1 0x1 PUSH1 0x1 PUSH1 0xA0 SHL SUB NOT AND SWAP1 SSTORE ADD SWAP1 SSTORE JUMPDEST PUSH1 0x0 JUMPDEST PUSH1 0x1 SLOAD DUP2 LT ISZERO PUSH2 0x395 JUMPI DUP5 PUSH1 0x1 DUP3 DUP2 SLOAD DUP2 LT PUSH2 0x36E JUMPI PUSH2 0x36E PUSH2 0xB73 JUMP JUMPDEST SWAP1 PUSH1 0x0 MSTORE PUSH1 0x20 PUSH1 0x0 KECCAK256 ADD SLOAD EQ ISZERO PUSH2 0x383 JUMPI DUP1 SWAP2 POP JUMPDEST DUP1 PUSH2 0x38D DUP2 PUSH2 0xB9F JUMP JUMPDEST SWAP2 POP POP PUSH2 0x350 JUMP JUMPDEST POP PUSH1 0x1 DUP1 SLOAD PUSH2 0x3A5 SWAP1 DUP3 SWAP1 PUSH2 0xBBA JUMP JUMPDEST DUP2 SLOAD DUP2 LT PUSH2 0x3B5 JUMPI PUSH2 0x3B5 PUSH2 0xB73 JUMP JUMPDEST SWAP1 PUSH1 0x0 MSTORE PUSH1 0x20 PUSH1 0x0 KECCAK256 ADD SLOAD PUSH1 0x1 DUP3 DUP2 SLOAD DUP2 LT PUSH2 0x3D3 JUMPI PUSH2 0x3D3 PUSH2 0xB73 JUMP JUMPDEST PUSH1 0x0 SWAP2 DUP3 MSTORE PUSH1 0x20 SWAP1 SWAP2 KECCAK256 ADD SSTORE PUSH1 0x1 DUP1 SLOAD DUP1 PUSH2 0x3F0 JUMPI PUSH2 0x3F0 PUSH2 0xBD1 JUMP JUMPDEST PUSH1 0x0 DUP3 DUP2 MSTORE PUSH1 0x20 DUP1 DUP3 KECCAK256 DUP4 ADD PUSH1 0x0 NOT SWAP1 DUP2 ADD DUP4 SWAP1 SSTORE SWAP1 SWAP3 ADD SWAP1 SWAP3 SSTORE SWAP5 DUP2 MSTORE SWAP4 DUP5 SWAP1 MSTORE POP POP PUSH1 0x40 DUP3 KECCAK256 DUP3 DUP2 SSTORE PUSH1 0x1 DUP2 ADD DUP1 SLOAD PUSH1 0x1 PUSH1 0x1 PUSH1 0xA0 SHL SUB NOT AND SWAP1 SSTORE PUSH1 0x2 DUP2 ADD DUP4 SWAP1 SSTORE PUSH1 0x3 DUP2 ADD DUP4 SWAP1 SSTORE PUSH1 0x4 ADD SWAP2 SWAP1 SWAP2 SSTORE POP JUMP JUMPDEST PUSH1 0x60 PUSH1 0x0 DUP1 JUMPDEST PUSH1 0x1 SLOAD DUP2 LT ISZERO PUSH2 0x4C3 JUMPI DUP4 PUSH1 0x1 PUSH1 0x1 PUSH1 0xA0 SHL SUB AND PUSH1 0x0 DUP1 PUSH1 0x1 DUP5 DUP2 SLOAD DUP2 LT PUSH2 0x475 JUMPI PUSH2 0x475 PUSH2 0xB73 JUMP JUMPDEST PUSH1 0x0 SWAP2 DUP3 MSTORE PUSH1 0x20 DUP1 DUP4 KECCAK256 SWAP1 SWAP2 ADD SLOAD DUP4 MSTORE DUP3 ADD SWAP3 SWAP1 SWAP3 MSTORE PUSH1 0x40 ADD SWAP1 KECCAK256 PUSH1 0x1 ADD SLOAD PUSH1 0x1 PUSH1 0x1 PUSH1 0xA0 SHL SUB AND EQ ISZERO PUSH2 0x4B1 JUMPI DUP2 PUSH2 0x4AD DUP2 PUSH2 0xB9F JUMP JUMPDEST SWAP3 POP POP JUMPDEST DUP1 PUSH2 0x4BB DUP2 PUSH2 0xB9F JUMP JUMPDEST SWAP2 POP POP PUSH2 0x44B JUMP JUMPDEST POP PUSH1 0x0 DUP2 PUSH8 0xFFFFFFFFFFFFFFFF DUP2 GT ISZERO PUSH2 0x4DF JUMPI PUSH2 0x4DF PUSH2 0xBE7 JUMP JUMPDEST PUSH1 0x40 MLOAD SWAP1 DUP1 DUP3 MSTORE DUP1 PUSH1 0x20 MUL PUSH1 0x20 ADD DUP3 ADD PUSH1 0x40 MSTORE DUP1 ISZERO PUSH2 0x518 JUMPI DUP2 PUSH1 0x20 ADD JUMPDEST PUSH2 0x505 PUSH2 0x9F7 JUMP JUMPDEST DUP2 MSTORE PUSH1 0x20 ADD SWAP1 PUSH1 0x1 SWAP1 SUB SWAP1 DUP2 PUSH2 0x4FD JUMPI SWAP1 POP JUMPDEST POP SWAP1 POP PUSH1 0x0 DUP1 JUMPDEST PUSH1 0x1 SLOAD DUP2 LT ISZERO PUSH2 0x62B JUMPI DUP6 PUSH1 0x1 PUSH1 0x1 PUSH1 0xA0 SHL SUB AND PUSH1 0x0 DUP1 PUSH1 0x1 DUP5 DUP2 SLOAD DUP2 LT PUSH2 0x549 JUMPI PUSH2 0x549 PUSH2 0xB73 JUMP JUMPDEST PUSH1 0x0 SWAP2 DUP3 MSTORE PUSH1 0x20 DUP1 DUP4 KECCAK256 SWAP1 SWAP2 ADD SLOAD DUP4 MSTORE DUP3 ADD SWAP3 SWAP1 SWAP3 MSTORE PUSH1 0x40 ADD SWAP1 KECCAK256 PUSH1 0x1 ADD SLOAD PUSH1 0x1 PUSH1 0x1 PUSH1 0xA0 SHL SUB AND EQ ISZERO PUSH2 0x619 JUMPI PUSH1 0x0 DUP1 PUSH1 0x1 DUP4 DUP2 SLOAD DUP2 LT PUSH2 0x58D JUMPI PUSH2 0x58D PUSH2 0xB73 JUMP JUMPDEST PUSH1 0x0 SWAP2 DUP3 MSTORE PUSH1 0x20 DUP1 DUP4 KECCAK256 SWAP1 SWAP2 ADD SLOAD DUP4 MSTORE DUP3 DUP2 ADD SWAP4 SWAP1 SWAP4 MSTORE PUSH1 0x40 SWAP2 DUP3 ADD SWAP1 KECCAK256 DUP2 MLOAD PUSH1 0xA0 DUP2 ADD DUP4 MSTORE DUP2 SLOAD DUP2 MSTORE PUSH1 0x1 DUP3 ADD SLOAD PUSH1 0x1 PUSH1 0x1 PUSH1 0xA0 SHL SUB AND SWAP4 DUP2 ADD SWAP4 SWAP1 SWAP4 MSTORE PUSH1 0x2 DUP2 ADD SLOAD SWAP2 DUP4 ADD SWAP2 SWAP1 SWAP2 MSTORE PUSH1 0x3 DUP2 ADD SLOAD PUSH1 0x60 DUP4 ADD MSTORE PUSH1 0x4 ADD SLOAD PUSH1 0x80 DUP3 ADD MSTORE DUP4 MLOAD DUP5 SWAP1 DUP5 SWAP1 DUP2 LT PUSH2 0x5FF JUMPI PUSH2 0x5FF PUSH2 0xB73 JUMP JUMPDEST PUSH1 0x20 MUL PUSH1 0x20 ADD ADD DUP2 SWAP1 MSTORE POP DUP2 DUP1 PUSH2 0x615 SWAP1 PUSH2 0xB9F JUMP JUMPDEST SWAP3 POP POP JUMPDEST DUP1 PUSH2 0x623 DUP2 PUSH2 0xB9F JUMP JUMPDEST SWAP2 POP POP PUSH2 0x51F JUMP JUMPDEST POP SWAP1 SWAP5 SWAP4 POP POP POP POP JUMP JUMPDEST PUSH1 0x0 CALLER TIMESTAMP PUSH2 0x642 PUSH1 0x1 SLOAD SWAP1 JUMP JUMPDEST PUSH1 0x40 DUP1 MLOAD PUSH1 0x1 PUSH1 0x1 PUSH1 0xA0 SHL SUB SWAP1 SWAP5 AND PUSH1 0x20 DUP6 ADD MSTORE DUP4 ADD SWAP2 SWAP1 SWAP2 MSTORE PUSH1 0x60 DUP3 ADD MSTORE PUSH1 0x80 ADD PUSH1 0x40 DUP1 MLOAD DUP1 DUP4 SUB PUSH1 0x1F NOT ADD DUP2 MSTORE DUP3 DUP3 MSTORE DUP1 MLOAD PUSH1 0x20 SWAP2 DUP3 ADD KECCAK256 PUSH1 0xA0 DUP5 ADD DUP4 MSTORE DUP1 DUP5 MSTORE CALLER DUP3 DUP6 ADD SWAP1 DUP2 MSTORE CALLVALUE DUP6 DUP6 ADD SWAP1 DUP2 MSTORE TIMESTAMP PUSH1 0x60 DUP8 ADD SWAP1 DUP2 MSTORE PUSH1 0x80 DUP8 ADD DUP10 DUP2 MSTORE PUSH1 0x0 DUP6 DUP2 MSTORE SWAP6 DUP7 SWAP1 MSTORE SWAP6 DUP6 KECCAK256 DUP8 MLOAD DUP2 SSTORE SWAP3 MLOAD PUSH1 0x1 DUP1 DUP6 ADD DUP1 SLOAD PUSH1 0x1 PUSH1 0x1 PUSH1 0xA0 SHL SUB NOT AND PUSH1 0x1 PUSH1 0x1 PUSH1 0xA0 SHL SUB SWAP1 SWAP4 AND SWAP3 SWAP1 SWAP3 OR SWAP1 SWAP2 SSTORE SWAP2 MLOAD PUSH1 0x2 DUP5 ADD SSTORE MLOAD PUSH1 0x3 DUP4 ADD SSTORE SWAP4 MLOAD PUSH1 0x4 SWAP1 SWAP2 ADD SSTORE DUP3 SLOAD DUP1 DUP5 ADD DUP5 SSTORE SWAP3 DUP3 MSTORE PUSH32 0xB10E2D527612073B26EECDFD717E6A320CF44B4AFAC2B0732D9FCBE2B7FA0CF6 SWAP1 SWAP3 ADD DUP3 SWAP1 SSTORE SWAP1 SWAP3 POP DUP1 JUMPDEST PUSH1 0x2 SLOAD DUP2 LT ISZERO PUSH2 0x77B JUMPI CALLER PUSH1 0x1 PUSH1 0x1 PUSH1 0xA0 SHL SUB AND PUSH1 0x2 DUP3 DUP2 SLOAD DUP2 LT PUSH2 0x749 JUMPI PUSH2 0x749 PUSH2 0xB73 JUMP JUMPDEST PUSH1 0x0 SWAP2 DUP3 MSTORE PUSH1 0x20 SWAP1 SWAP2 KECCAK256 ADD SLOAD PUSH1 0x1 PUSH1 0x1 PUSH1 0xA0 SHL SUB AND EQ ISZERO PUSH2 0x769 JUMPI PUSH1 0x1 SWAP2 POP JUMPDEST DUP1 PUSH2 0x773 DUP2 PUSH2 0xB9F JUMP JUMPDEST SWAP2 POP POP PUSH2 0x722 JUMP JUMPDEST POP DUP1 PUSH2 0x7C4 JUMPI PUSH1 0x2 DUP1 SLOAD PUSH1 0x1 DUP2 ADD DUP3 SSTORE PUSH1 0x0 SWAP2 SWAP1 SWAP2 MSTORE PUSH32 0x405787FA12A823E0F2B7631CC41B3BA8828B3321CA811111FA75CD3AA3BB5ACE ADD DUP1 SLOAD PUSH1 0x1 PUSH1 0x1 PUSH1 0xA0 SHL SUB NOT AND CALLER OR SWAP1 SSTORE JUMPDEST POP POP POP POP JUMP JUMPDEST PUSH1 0x60 PUSH1 0x2 DUP1 SLOAD DUP1 PUSH1 0x20 MUL PUSH1 0x20 ADD PUSH1 0x40 MLOAD SWAP1 DUP2 ADD PUSH1 0x40 MSTORE DUP1 SWAP3 SWAP2 SWAP1 DUP2 DUP2 MSTORE PUSH1 0x20 ADD DUP3 DUP1 SLOAD DUP1 ISZERO PUSH2 0x822 JUMPI PUSH1 0x20 MUL DUP3 ADD SWAP2 SWAP1 PUSH1 0x0 MSTORE PUSH1 0x20 PUSH1 0x0 KECCAK256 SWAP1 JUMPDEST DUP2 SLOAD PUSH1 0x1 PUSH1 0x1 PUSH1 0xA0 SHL SUB AND DUP2 MSTORE PUSH1 0x1 SWAP1 SWAP2 ADD SWAP1 PUSH1 0x20 ADD DUP1 DUP4 GT PUSH2 0x804 JUMPI JUMPDEST POP POP POP POP POP SWAP1 POP SWAP1 JUMP JUMPDEST PUSH1 0x60 PUSH1 0x1 DUP1 SLOAD DUP1 PUSH1 0x20 MUL PUSH1 0x20 ADD PUSH1 0x40 MLOAD SWAP1 DUP2 ADD PUSH1 0x40 MSTORE DUP1 SWAP3 SWAP2 SWAP1 DUP2 DUP2 MSTORE PUSH1 0x20 ADD DUP3 DUP1 SLOAD DUP1 ISZERO PUSH2 0x822 JUMPI PUSH1 0x20 MUL DUP3 ADD SWAP2 SWAP1 PUSH1 0x0 MSTORE PUSH1 0x20 PUSH1 0x0 KECCAK256 SWAP1 JUMPDEST DUP2 SLOAD DUP2 MSTORE PUSH1 0x20 ADD SWAP1 PUSH1 0x1 ADD SWAP1 DUP1 DUP4 GT PUSH2 0x866 JUMPI POP POP POP POP POP SWAP1 POP SWAP1 JUMP JUMPDEST PUSH1 0x1 SLOAD PUSH1 0x60 SWAP1 PUSH1 0x0 SWAP1 PUSH8 0xFFFFFFFFFFFFFFFF DUP2 GT ISZERO PUSH2 0x8A4 JUMPI PUSH2 0x8A4 PUSH2 0xBE7 JUMP JUMPDEST PUSH1 0x40 MLOAD SWAP1 DUP1 DUP3 MSTORE DUP1 PUSH1 0x20 MUL PUSH1 0x20 ADD DUP3 ADD PUSH1 0x40 MSTORE DUP1 ISZERO PUSH2 0x8DD JUMPI DUP2 PUSH1 0x20 ADD JUMPDEST PUSH2 0x8CA PUSH2 0x9F7 JUMP JUMPDEST DUP2 MSTORE PUSH1 0x20 ADD SWAP1 PUSH1 0x1 SWAP1 SUB SWAP1 DUP2 PUSH2 0x8C2 JUMPI SWAP1 POP JUMPDEST POP SWAP1 POP PUSH1 0x0 JUMPDEST PUSH1 0x1 SLOAD DUP2 LT ISZERO PUSH2 0x993 JUMPI PUSH1 0x0 DUP1 PUSH1 0x1 DUP4 DUP2 SLOAD DUP2 LT PUSH2 0x903 JUMPI PUSH2 0x903 PUSH2 0xB73 JUMP JUMPDEST PUSH1 0x0 SWAP2 DUP3 MSTORE PUSH1 0x20 DUP1 DUP4 KECCAK256 SWAP1 SWAP2 ADD SLOAD DUP4 MSTORE DUP3 DUP2 ADD SWAP4 SWAP1 SWAP4 MSTORE PUSH1 0x40 SWAP2 DUP3 ADD SWAP1 KECCAK256 DUP2 MLOAD PUSH1 0xA0 DUP2 ADD DUP4 MSTORE DUP2 SLOAD DUP2 MSTORE PUSH1 0x1 DUP3 ADD SLOAD PUSH1 0x1 PUSH1 0x1 PUSH1 0xA0 SHL SUB AND SWAP4 DUP2 ADD SWAP4 SWAP1 SWAP4 MSTORE PUSH1 0x2 DUP2 ADD SLOAD SWAP2 DUP4 ADD SWAP2 SWAP1 SWAP2 MSTORE PUSH1 0x3 DUP2 ADD SLOAD PUSH1 0x60 DUP4 ADD MSTORE PUSH1 0x4 ADD SLOAD PUSH1 0x80 DUP3 ADD MSTORE DUP3 MLOAD DUP4 SWAP1 DUP4 SWAP1 DUP2 LT PUSH2 0x975 JUMPI PUSH2 0x975 PUSH2 0xB73 JUMP JUMPDEST PUSH1 0x20 MUL PUSH1 0x20 ADD ADD DUP2 SWAP1 MSTORE POP DUP1 DUP1 PUSH2 0x98B SWAP1 PUSH2 0xB9F JUMP JUMPDEST SWAP2 POP POP PUSH2 0x8E3 JUMP JUMPDEST POP SWAP2 SWAP1 POP JUMP JUMPDEST PUSH2 0x9A1 PUSH2 0x9F7 JUMP JUMPDEST POP PUSH1 0x0 SWAP1 DUP2 MSTORE PUSH1 0x20 DUP2 DUP2 MSTORE PUSH1 0x40 SWAP2 DUP3 SWAP1 KECCAK256 DUP3 MLOAD PUSH1 0xA0 DUP2 ADD DUP5 MSTORE DUP2 SLOAD DUP2 MSTORE PUSH1 0x1 DUP3 ADD SLOAD PUSH1 0x1 PUSH1 0x1 PUSH1 0xA0 SHL SUB AND SWAP3 DUP2 ADD SWAP3 SWAP1 SWAP3 MSTORE PUSH1 0x2 DUP2 ADD SLOAD SWAP3 DUP3 ADD SWAP3 SWAP1 SWAP3 MSTORE PUSH1 0x3 DUP3 ADD SLOAD PUSH1 0x60 DUP3 ADD MSTORE PUSH1 0x4 SWAP1 SWAP2 ADD SLOAD PUSH1 0x80 DUP3 ADD MSTORE SWAP1 JUMP JUMPDEST PUSH1 0x40 MLOAD DUP1 PUSH1 0xA0 ADD PUSH1 0x40 MSTORE DUP1 PUSH1 0x0 DUP1 NOT AND DUP2 MSTORE PUSH1 0x20 ADD PUSH1 0x0 PUSH1 0x1 PUSH1 0x1 PUSH1 0xA0 SHL SUB AND DUP2 MSTORE PUSH1 0x20 ADD PUSH1 0x0 DUP2 MSTORE PUSH1 0x20 ADD PUSH1 0x0 DUP2 MSTORE PUSH1 0x20 ADD PUSH1 0x0 DUP2 MSTORE POP SWAP1 JUMP JUMPDEST PUSH1 0x0 PUSH1 0x20 DUP3 DUP5 SUB SLT ISZERO PUSH2 0xA44 JUMPI PUSH1 0x0 DUP1 REVERT JUMPDEST POP CALLDATALOAD SWAP2 SWAP1 POP JUMP JUMPDEST PUSH1 0x0 PUSH1 0x20 DUP3 DUP5 SUB SLT ISZERO PUSH2 0xA5D JUMPI PUSH1 0x0 DUP1 REVERT JUMPDEST DUP2 CALLDATALOAD PUSH1 0x1 PUSH1 0x1 PUSH1 0xA0 SHL SUB DUP2 AND DUP2 EQ PUSH2 0xA74 JUMPI PUSH1 0x0 DUP1 REVERT JUMPDEST SWAP4 SWAP3 POP POP POP JUMP JUMPDEST PUSH1 0x20 DUP1 DUP3 MSTORE DUP3 MLOAD DUP3 DUP3 ADD DUP2 SWAP1 MSTORE PUSH1 0x0 SWAP2 SWAP1 DUP5 DUP3 ADD SWAP1 PUSH1 0x40 DUP6 ADD SWAP1 DUP5 JUMPDEST DUP2 DUP2 LT ISZERO PUSH2 0xAEE JUMPI PUSH2 0xADB DUP4 DUP6 MLOAD DUP1 MLOAD DUP3 MSTORE PUSH1 0x20 DUP1 DUP3 ADD MLOAD PUSH1 0x1 PUSH1 0x1 PUSH1 0xA0 SHL SUB AND SWAP1 DUP4 ADD MSTORE PUSH1 0x40 DUP1 DUP3 ADD MLOAD SWAP1 DUP4 ADD MSTORE PUSH1 0x60 DUP1 DUP3 ADD MLOAD SWAP1 DUP4 ADD MSTORE PUSH1 0x80 SWAP1 DUP2 ADD MLOAD SWAP2 ADD MSTORE JUMP JUMPDEST SWAP3 DUP5 ADD SWAP3 PUSH1 0xA0 SWAP3 SWAP1 SWAP3 ADD SWAP2 PUSH1 0x1 ADD PUSH2 0xA97 JUMP JUMPDEST POP SWAP1 SWAP7 SWAP6 POP POP POP POP POP POP JUMP JUMPDEST PUSH1 0x20 DUP1 DUP3 MSTORE DUP3 MLOAD DUP3 DUP3 ADD DUP2 SWAP1 MSTORE PUSH1 0x0 SWAP2 SWAP1 DUP5 DUP3 ADD SWAP1 PUSH1 0x40 DUP6 ADD SWAP1 DUP5 JUMPDEST DUP2 DUP2 LT ISZERO PUSH2 0xAEE JUMPI DUP4 MLOAD PUSH1 0x1 PUSH1 0x1 PUSH1 0xA0 SHL SUB AND DUP4 MSTORE SWAP3 DUP5 ADD SWAP3 SWAP2 DUP5 ADD SWAP2 PUSH1 0x1 ADD PUSH2 0xB16 JUMP JUMPDEST PUSH1 0x20 DUP1 DUP3 MSTORE DUP3 MLOAD DUP3 DUP3 ADD DUP2 SWAP1 MSTORE PUSH1 0x0 SWAP2 SWAP1 DUP5 DUP3 ADD SWAP1 PUSH1 0x40 DUP6 ADD SWAP1 DUP5 JUMPDEST DUP2 DUP2 LT ISZERO PUSH2 0xAEE JUMPI DUP4 MLOAD DUP4 MSTORE SWAP3 DUP5 ADD SWAP3 SWAP2 DUP5 ADD SWAP2 PUSH1 0x1 ADD PUSH2 0xB57 JUMP JUMPDEST PUSH4 0x4E487B71 PUSH1 0xE0 SHL PUSH1 0x0 MSTORE PUSH1 0x32 PUSH1 0x4 MSTORE PUSH1 0x24 PUSH1 0x0 REVERT JUMPDEST PUSH4 0x4E487B71 PUSH1 0xE0 SHL PUSH1 0x0 MSTORE PUSH1 0x11 PUSH1 0x4 MSTORE PUSH1 0x24 PUSH1 0x0 REVERT JUMPDEST PUSH1 0x0 PUSH1 0x0 NOT DUP3 EQ ISZERO PUSH2 0xBB3 JUMPI PUSH2 0xBB3 PUSH2 0xB89 JUMP JUMPDEST POP PUSH1 0x1 ADD SWAP1 JUMP JUMPDEST PUSH1 0x0 DUP3 DUP3 LT ISZERO PUSH2 0xBCC JUMPI PUSH2 0xBCC PUSH2 0xB89 JUMP JUMPDEST POP SUB SWAP1 JUMP JUMPDEST PUSH4 0x4E487B71 PUSH1 0xE0 SHL PUSH1 0x0 MSTORE PUSH1 0x31 PUSH1 0x4 MSTORE PUSH1 0x24 PUSH1 0x0 REVERT JUMPDEST PUSH4 0x4E487B71 PUSH1 0xE0 SHL PUSH1 0x0 MSTORE PUSH1 0x41 PUSH1 0x4 MSTORE PUSH1 0x24 PUSH1 0x0 REVERT INVALID LOG2 PUSH5 0x6970667358 0x22 SLT KECCAK256 LOG1 DIFFICULTY SWAP14 0x4D DIFFICULTY NUMBER 0x2B 0xE1 EXP BALANCE SWAP3 SWAP8 0xC SELFDESTRUCT SWAP11 DIV 0xCC SHL 0xED DIFFICULTY 0xA8 0xD1 0xF DUP13 0xD2 0xD3 SWAP6 DUP14 0xC4 0x2A CODESIZE PUSH32 0x64736F6C634300080B0033000000000000000000000000000000000000000000 ",
  "sha1": "054eb902fb21131185e322a4884f08e83f7a765f",
  "source": "// SPDX-License-Identifier: MIT\n\npragma solidity ^0.8.10;\n\nstruct Deposit {\n    bytes32 key;\n    address depositor;\n    uint256 amount;\n    uint256 timestamp;\n    uint duration_in_month;\n}\n\n\ncontract CDeposit {\n\n    mapping(bytes32 => Deposit) internal map;\n    \n    bytes32[] internal keyList;\n    address[] internal addressList;\n\n    event Debug (uint);\n\n    function addDeposit(uint duration_in_month) external payable {\n        bytes32 _key = keccak256(abi.encode(msg.sender, block.timestamp, sizeDeposit()));\n        Deposit memory _deposit = Deposit(_key, msg.sender, msg.value, block.timestamp, duration_in_month);\n        map[_key] = _deposit;\n        keyList.push(_key);\n        bool found = false;\n        for (uint i = 0; i < addressList.length; i++) {\n            if (addressList[i] == msg.sender) {\n                found = true;\n            }\n        }\n        if (found==false) addressList.push(msg.sender);\n    }\n\n    function removeDeposit(bytes32 _key) public  {\n        address _depositor = map[_key].depositor;\n\n        uint _count = 0;\n        uint _id = 0;\n        for (uint i = 0; i < addressList.length; i++) {\n            if (addressList[i] == _depositor) {\n                _count ++;\n                _id = i;\n            }\n        }\n        if (_count==1) {\n            addressList[_id] = addressList[addressList.length - 1];\n            addressList.pop();\n        }\n\n        for (uint i = 0; i < keyList.length; i++) {\n            if (keyList[i] == _key) {\n                _id = i;\n            }\n        }\n        keyList[_id] = keyList[keyList.length - 1];\n        keyList.pop();\n        \n        delete map[_key];\n        \n    }\n    \n    function containsDeposit(bytes32 _key) public view returns (bool) {\n        return map[_key].timestamp != 0;\n    }\n    \n    function getDepositByKey(bytes32 _key) public view returns (Deposit memory) {\n        return map[_key];\n    }\n\n    function sizeDeposit() public view returns (uint) {\n        return uint(keyList.length);\n    }\n    \n    function getDepositKeys() public view returns (bytes32[] memory) {\n        return keyList;\n    }\n\n   function getDepositAddresses() public view returns (address[] memory) {\n        return addressList;\n    }\n\n    function getDepositbyAddress(address _address) public view returns (Deposit[] memory) {\n        uint256 _resultCount;\n\n        for (uint i = 0; i < keyList.length; i++) {\n            if (map[keyList[i]].depositor == _address) {\n                _resultCount++;\n            }\n        }\n        \n        Deposit[] memory _deposits = new Deposit[](_resultCount);\n        uint256 j;\n\n        for (uint i = 0; i < keyList.length; i++) {\n            if (map[keyList[i]].depositor == _address) {\n                _deposits[j] = map[keyList[i]];\n                j++;\n            }\n        }\n        return _deposits;\n    }\n\n    function getAllDeposits() public view returns (Deposit[] memory) {\n        \n        Deposit[] memory _deposits = new Deposit[](keyList.length);\n\n        for (uint i = 0; i < keyList.length; i++) {\n            _deposits[i] = map[keyList[i]];\n        }\n        return _deposits;\n    }\n    \n\n}",
  "sourcePath": "contracts/CDeposit.sol",
  "type": "contract"
}