{
  "abi": [
    {
      "anonymous": false,
      "inputs": [
        {
          "indexed": false,
          "internalType": "uint256",
          "name": "",
          "type": "uint256"
        }
      ],
      "name": "Debug",
      "type": "event"
    },
    {
      "inputs": [
        {
          "internalType": "uint256",
          "name": "duration_in_days",
          "type": "uint256"
        }
      ],
      "name": "addDeposit",
      "outputs": [],
      "stateMutability": "payable",
      "type": "function"
    },
    {
      "inputs": [
        {
          "internalType": "bytes32",
          "name": "_key",
          "type": "bytes32"
        }
      ],
      "name": "containsDeposit",
      "outputs": [
        {
          "internalType": "bool",
          "name": "",
          "type": "bool"
        }
      ],
      "stateMutability": "view",
      "type": "function"
    },
    {
      "inputs": [],
      "name": "getAllDeposits",
      "outputs": [
        {
          "components": [
            {
              "internalType": "bytes32",
              "name": "key",
              "type": "bytes32"
            },
            {
              "internalType": "address",
              "name": "depositor",
              "type": "address"
            },
            {
              "internalType": "uint256",
              "name": "amount",
              "type": "uint256"
            },
            {
              "internalType": "uint256",
              "name": "timestamp",
              "type": "uint256"
            },
            {
              "internalType": "uint256",
              "name": "duration_in_days",
              "type": "uint256"
            },
            {
              "internalType": "bool",
              "name": "expired",
              "type": "bool"
            }
          ],
          "internalType": "struct Deposit[]",
          "name": "",
          "type": "tuple[]"
        }
      ],
      "stateMutability": "view",
      "type": "function"
    },
    {
      "inputs": [],
      "name": "getDepositAddresses",
      "outputs": [
        {
          "internalType": "address[]",
          "name": "",
          "type": "address[]"
        }
      ],
      "stateMutability": "view",
      "type": "function"
    },
    {
      "inputs": [
        {
          "internalType": "bytes32",
          "name": "_key",
          "type": "bytes32"
        }
      ],
      "name": "getDepositByKey",
      "outputs": [
        {
          "components": [
            {
              "internalType": "bytes32",
              "name": "key",
              "type": "bytes32"
            },
            {
              "internalType": "address",
              "name": "depositor",
              "type": "address"
            },
            {
              "internalType": "uint256",
              "name": "amount",
              "type": "uint256"
            },
            {
              "internalType": "uint256",
              "name": "timestamp",
              "type": "uint256"
            },
            {
              "internalType": "uint256",
              "name": "duration_in_days",
              "type": "uint256"
            },
            {
              "internalType": "bool",
              "name": "expired",
              "type": "bool"
            }
          ],
          "internalType": "struct Deposit",
          "name": "",
          "type": "tuple"
        }
      ],
      "stateMutability": "view",
      "type": "function"
    },
    {
      "inputs": [],
      "name": "getDepositKeys",
      "outputs": [
        {
          "internalType": "bytes32[]",
          "name": "",
          "type": "bytes32[]"
        }
      ],
      "stateMutability": "view",
      "type": "function"
    },
    {
      "inputs": [
        {
          "internalType": "address",
          "name": "_address",
          "type": "address"
        }
      ],
      "name": "getDepositbyAddress",
      "outputs": [
        {
          "components": [
            {
              "internalType": "bytes32",
              "name": "key",
              "type": "bytes32"
            },
            {
              "internalType": "address",
              "name": "depositor",
              "type": "address"
            },
            {
              "internalType": "uint256",
              "name": "amount",
              "type": "uint256"
            },
            {
              "internalType": "uint256",
              "name": "timestamp",
              "type": "uint256"
            },
            {
              "internalType": "uint256",
              "name": "duration_in_days",
              "type": "uint256"
            },
            {
              "internalType": "bool",
              "name": "expired",
              "type": "bool"
            }
          ],
          "internalType": "struct Deposit[]",
          "name": "",
          "type": "tuple[]"
        }
      ],
      "stateMutability": "view",
      "type": "function"
    },
    {
      "inputs": [
        {
          "internalType": "bytes32",
          "name": "_key",
          "type": "bytes32"
        }
      ],
      "name": "handbackDeposit",
      "outputs": [],
      "stateMutability": "nonpayable",
      "type": "function"
    },
    {
      "inputs": [],
      "name": "handbackExpiredDeposits",
      "outputs": [],
      "stateMutability": "nonpayable",
      "type": "function"
    },
    {
      "inputs": [
        {
          "internalType": "bytes32",
          "name": "_key",
          "type": "bytes32"
        }
      ],
      "name": "removeDeposit",
      "outputs": [],
      "stateMutability": "nonpayable",
      "type": "function"
    },
    {
      "inputs": [],
      "name": "sizeDeposit",
      "outputs": [
        {
          "internalType": "uint256",
          "name": "",
          "type": "uint256"
        }
      ],
      "stateMutability": "view",
      "type": "function"
    }
  ],
  "bytecode": "608060405234801561001057600080fd5b50610d97806100206000396000f3fe60806040526004361061009c5760003560e01c8063a6f1fd5111610064578063a6f1fd5114610175578063cc7985b614610188578063d0b2c6f2146101aa578063d3f3f5ea146101cc578063e2a30f16146101e1578063e861f6581461020e57600080fd5b80632a3130c4146100a1578063358876cf146100c457806359862aa5146100e65780637a4b41901461010657806387d6578214610148575b600080fd5b3480156100ad57600080fd5b506001546040519081526020015b60405180910390f35b3480156100d057600080fd5b506100e46100df366004610b3a565b610223565b005b3480156100f257600080fd5b506100e4610101366004610b3a565b610463565b34801561011257600080fd5b50610138610121366004610b3a565b600090815260208190526040902060030154151590565b60405190151581526020016100bb565b34801561015457600080fd5b50610168610163366004610b53565b610491565b6040516100bb9190610bc5565b6100e4610183366004610b3a565b610631565b34801561019457600080fd5b5061019d6107e1565b6040516100bb9190610c13565b3480156101b657600080fd5b506101bf610843565b6040516100bb9190610c54565b3480156101d857600080fd5b5061016861089a565b3480156101ed57600080fd5b506102016101fc366004610b3a565b610950565b6040516100bb9190610c8c565b34801561021a57600080fd5b506100e4610a0c565b6000818152602081905260408120600101546001600160a01b03169080805b6002548110156102a757836001600160a01b03166002828154811061026957610269610ca0565b6000918252602090912001546001600160a01b03161415610295578261028e81610ccc565b9350508091505b8061029f81610ccc565b915050610242565b50816001141561035f57600280546102c190600190610ce7565b815481106102d1576102d1610ca0565b600091825260209091200154600280546001600160a01b0390921691839081106102fd576102fd610ca0565b9060005260206000200160006101000a8154816001600160a01b0302191690836001600160a01b03160217905550600280548061033c5761033c610cfe565b600082815260209020810160001990810180546001600160a01b03191690550190555b60005b6001548110156103a757846001828154811061038057610380610ca0565b90600052602060002001541415610395578091505b8061039f81610ccc565b915050610362565b50600180546103b7908290610ce7565b815481106103c7576103c7610ca0565b9060005260206000200154600182815481106103e5576103e5610ca0565b600091825260209091200155600180548061040257610402610cfe565b600082815260208082208301600019908101839055909201909255948152938490525050604082208281556001810180546001600160a01b03191690556002810183905560038101839055600481019290925550600501805460ff19169055565b600061046e82610950565b905061048281602001518260400151610aca565b805161048d90610223565b5050565b60606000805b60015481101561050f57836001600160a01b0316600080600184815481106104c1576104c1610ca0565b600091825260208083209091015483528201929092526040019020600101546001600160a01b031614156104fd57816104f981610ccc565b9250505b8061050781610ccc565b915050610497565b5060008167ffffffffffffffff81111561052b5761052b610d14565b60405190808252806020026020018201604052801561056457816020015b610551610b05565b8152602001906001900390816105495790505b5090506000805b60015481101561062757856001600160a01b03166000806001848154811061059557610595610ca0565b600091825260208083209091015483528201929092526040019020600101546001600160a01b03161415610615576105e9600182815481106105d9576105d9610ca0565b9060005260206000200154610950565b8383815181106105fb576105fb610ca0565b6020026020010181905250818061061190610ccc565b9250505b8061061f81610ccc565b91505061056b565b5090949350505050565b6000334261063e60015490565b604080516001600160a01b039094166020850152830191909152606082015260800160408051808303601f19018152828252805160209182012060c0840183528084523382850190815234858501908152426060870190815260808701898152600160a0890181815260008781529788905297872089518155945185820180546001600160a01b0319166001600160a01b03909216919091179055925160028501559051600384015551600483015593516005909101805460ff1916911515919091179055825480840184559282527fb10e2d527612073b26eecdfd717e6a320cf44b4afac2b0732d9fcbe2b7fa0cf6909201829055909250805b60025481101561079257336001600160a01b03166002828154811061076057610760610ca0565b6000918252602090912001546001600160a01b0316141561078057600191505b8061078a81610ccc565b915050610739565b50806107db57600280546001810182556000919091527f405787fa12a823e0f2b7631cc41b3ba8828b3321ca811111fa75cd3aa3bb5ace0180546001600160a01b031916331790555b50505050565b6060600280548060200260200160405190810160405280929190818152602001828054801561083957602002820191906000526020600020905b81546001600160a01b0316815260019091019060200180831161081b575b5050505050905090565b6060600180548060200260200160405190810160405280929190818152602001828054801561083957602002820191906000526020600020905b81548152602001906001019080831161087d575050505050905090565b60015460609060009067ffffffffffffffff8111156108bb576108bb610d14565b6040519080825280602002602001820160405280156108f457816020015b6108e1610b05565b8152602001906001900390816108d95790505b50905060005b60015481101561094a5761091a600182815481106105d9576105d9610ca0565b82828151811061092c5761092c610ca0565b6020026020010181905250808061094290610ccc565b9150506108fa565b50919050565b610958610b05565b600082815260208181526040808320815160c0810183528154815260018201546001600160a01b0316938101939093526002810154918301919091526003810154606083015260048101546080830181905260059091015460ff16151560a08301529091906109c890603c610d2a565b6109d390603c610d2a565b6109de906018610d2a565b82606001516109ed9190610d49565b42106109fb575060016109ff565b5060005b151560a082015292915050565b6000610a1661089a565b905060005b815181101561048d57818181518110610a3657610a36610ca0565b602002602001015160a001511515600115151415610ab857610a92828281518110610a6357610a63610ca0565b602002602001015160200151838381518110610a8157610a81610ca0565b602002602001015160400151610aca565b610ab8828281518110610aa757610aa7610ca0565b602002602001015160000151610223565b80610ac281610ccc565b915050610a1b565b6040516001600160a01b0383169082156108fc029083906000818181858888f19350505050158015610b00573d6000803e3d6000fd5b505050565b6040805160c081018252600080825260208201819052918101829052606081018290526080810182905260a081019190915290565b600060208284031215610b4c57600080fd5b5035919050565b600060208284031215610b6557600080fd5b81356001600160a01b0381168114610b7c57600080fd5b9392505050565b805182526020808201516001600160a01b03169083015260408082015190830152606080820151908301526080808201519083015260a0908101511515910152565b6020808252825182820181905260009190848201906040850190845b81811015610c0757610bf4838551610b83565b9284019260c09290920191600101610be1565b50909695505050505050565b6020808252825182820181905260009190848201906040850190845b81811015610c075783516001600160a01b031683529284019291840191600101610c2f565b6020808252825182820181905260009190848201906040850190845b81811015610c0757835183529284019291840191600101610c70565b60c08101610c9a8284610b83565b92915050565b634e487b7160e01b600052603260045260246000fd5b634e487b7160e01b600052601160045260246000fd5b6000600019821415610ce057610ce0610cb6565b5060010190565b600082821015610cf957610cf9610cb6565b500390565b634e487b7160e01b600052603160045260246000fd5b634e487b7160e01b600052604160045260246000fd5b6000816000190483118215151615610d4457610d44610cb6565b500290565b60008219821115610d5c57610d5c610cb6565b50019056fea26469706673582212201e359a1ad5078fe13eac2d5ffda9b5f4319b0f34984cf492e11776db6cfc9a7464736f6c634300080c0033",
  "bytecodeSha1": "e3754c76f8cff016f7673fa1c42c9bfdc491f2c4",
  "compiler": {
    "evm_version": "istanbul",
    "optimizer": {
      "enabled": true,
      "runs": 200
    },
    "version": "0.8.12+commit.f00d7308"
  },
  "contractName": "CDeposit",
  "language": "Solidity",
  "natspec": {
    "kind": "dev",
    "methods": {},
    "version": 1
  },
  "opcodes": "PUSH1 0x80 PUSH1 0x40 MSTORE PUSH1 0x4 CALLDATASIZE LT PUSH2 0x9C JUMPI PUSH1 0x0 CALLDATALOAD PUSH1 0xE0 SHR DUP1 PUSH4 0xA6F1FD51 GT PUSH2 0x64 JUMPI DUP1 PUSH4 0xA6F1FD51 EQ PUSH2 0x175 JUMPI DUP1 PUSH4 0xCC7985B6 EQ PUSH2 0x188 JUMPI DUP1 PUSH4 0xD0B2C6F2 EQ PUSH2 0x1AA JUMPI DUP1 PUSH4 0xD3F3F5EA EQ PUSH2 0x1CC JUMPI DUP1 PUSH4 0xE2A30F16 EQ PUSH2 0x1E1 JUMPI DUP1 PUSH4 0xE861F658 EQ PUSH2 0x20E JUMPI PUSH1 0x0 DUP1 REVERT JUMPDEST DUP1 PUSH4 0x2A3130C4 EQ PUSH2 0xA1 JUMPI DUP1 PUSH4 0x358876CF EQ PUSH2 0xC4 JUMPI DUP1 PUSH4 0x59862AA5 EQ PUSH2 0xE6 JUMPI DUP1 PUSH4 0x7A4B4190 EQ PUSH2 0x106 JUMPI DUP1 PUSH4 0x87D65782 EQ PUSH2 0x148 JUMPI JUMPDEST PUSH1 0x0 DUP1 REVERT JUMPDEST CALLVALUE DUP1 ISZERO PUSH2 0xAD JUMPI PUSH1 0x0 DUP1 REVERT JUMPDEST POP PUSH1 0x1 SLOAD PUSH1 0x40 MLOAD SWAP1 DUP2 MSTORE PUSH1 0x20 ADD JUMPDEST PUSH1 0x40 MLOAD DUP1 SWAP2 SUB SWAP1 RETURN JUMPDEST CALLVALUE DUP1 ISZERO PUSH2 0xD0 JUMPI PUSH1 0x0 DUP1 REVERT JUMPDEST POP PUSH2 0xE4 PUSH2 0xDF CALLDATASIZE PUSH1 0x4 PUSH2 0xB3A JUMP JUMPDEST PUSH2 0x223 JUMP JUMPDEST STOP JUMPDEST CALLVALUE DUP1 ISZERO PUSH2 0xF2 JUMPI PUSH1 0x0 DUP1 REVERT JUMPDEST POP PUSH2 0xE4 PUSH2 0x101 CALLDATASIZE PUSH1 0x4 PUSH2 0xB3A JUMP JUMPDEST PUSH2 0x463 JUMP JUMPDEST CALLVALUE DUP1 ISZERO PUSH2 0x112 JUMPI PUSH1 0x0 DUP1 REVERT JUMPDEST POP PUSH2 0x138 PUSH2 0x121 CALLDATASIZE PUSH1 0x4 PUSH2 0xB3A JUMP JUMPDEST PUSH1 0x0 SWAP1 DUP2 MSTORE PUSH1 0x20 DUP2 SWAP1 MSTORE PUSH1 0x40 SWAP1 KECCAK256 PUSH1 0x3 ADD SLOAD ISZERO ISZERO SWAP1 JUMP JUMPDEST PUSH1 0x40 MLOAD SWAP1 ISZERO ISZERO DUP2 MSTORE PUSH1 0x20 ADD PUSH2 0xBB JUMP JUMPDEST CALLVALUE DUP1 ISZERO PUSH2 0x154 JUMPI PUSH1 0x0 DUP1 REVERT JUMPDEST POP PUSH2 0x168 PUSH2 0x163 CALLDATASIZE PUSH1 0x4 PUSH2 0xB53 JUMP JUMPDEST PUSH2 0x491 JUMP JUMPDEST PUSH1 0x40 MLOAD PUSH2 0xBB SWAP2 SWAP1 PUSH2 0xBC5 JUMP JUMPDEST PUSH2 0xE4 PUSH2 0x183 CALLDATASIZE PUSH1 0x4 PUSH2 0xB3A JUMP JUMPDEST PUSH2 0x631 JUMP JUMPDEST CALLVALUE DUP1 ISZERO PUSH2 0x194 JUMPI PUSH1 0x0 DUP1 REVERT JUMPDEST POP PUSH2 0x19D PUSH2 0x7E1 JUMP JUMPDEST PUSH1 0x40 MLOAD PUSH2 0xBB SWAP2 SWAP1 PUSH2 0xC13 JUMP JUMPDEST CALLVALUE DUP1 ISZERO PUSH2 0x1B6 JUMPI PUSH1 0x0 DUP1 REVERT JUMPDEST POP PUSH2 0x1BF PUSH2 0x843 JUMP JUMPDEST PUSH1 0x40 MLOAD PUSH2 0xBB SWAP2 SWAP1 PUSH2 0xC54 JUMP JUMPDEST CALLVALUE DUP1 ISZERO PUSH2 0x1D8 JUMPI PUSH1 0x0 DUP1 REVERT JUMPDEST POP PUSH2 0x168 PUSH2 0x89A JUMP JUMPDEST CALLVALUE DUP1 ISZERO PUSH2 0x1ED JUMPI PUSH1 0x0 DUP1 REVERT JUMPDEST POP PUSH2 0x201 PUSH2 0x1FC CALLDATASIZE PUSH1 0x4 PUSH2 0xB3A JUMP JUMPDEST PUSH2 0x950 JUMP JUMPDEST PUSH1 0x40 MLOAD PUSH2 0xBB SWAP2 SWAP1 PUSH2 0xC8C JUMP JUMPDEST CALLVALUE DUP1 ISZERO PUSH2 0x21A JUMPI PUSH1 0x0 DUP1 REVERT JUMPDEST POP PUSH2 0xE4 PUSH2 0xA0C JUMP JUMPDEST PUSH1 0x0 DUP2 DUP2 MSTORE PUSH1 0x20 DUP2 SWAP1 MSTORE PUSH1 0x40 DUP2 KECCAK256 PUSH1 0x1 ADD SLOAD PUSH1 0x1 PUSH1 0x1 PUSH1 0xA0 SHL SUB AND SWAP1 DUP1 DUP1 JUMPDEST PUSH1 0x2 SLOAD DUP2 LT ISZERO PUSH2 0x2A7 JUMPI DUP4 PUSH1 0x1 PUSH1 0x1 PUSH1 0xA0 SHL SUB AND PUSH1 0x2 DUP3 DUP2 SLOAD DUP2 LT PUSH2 0x269 JUMPI PUSH2 0x269 PUSH2 0xCA0 JUMP JUMPDEST PUSH1 0x0 SWAP2 DUP3 MSTORE PUSH1 0x20 SWAP1 SWAP2 KECCAK256 ADD SLOAD PUSH1 0x1 PUSH1 0x1 PUSH1 0xA0 SHL SUB AND EQ ISZERO PUSH2 0x295 JUMPI DUP3 PUSH2 0x28E DUP2 PUSH2 0xCCC JUMP JUMPDEST SWAP4 POP POP DUP1 SWAP2 POP JUMPDEST DUP1 PUSH2 0x29F DUP2 PUSH2 0xCCC JUMP JUMPDEST SWAP2 POP POP PUSH2 0x242 JUMP JUMPDEST POP DUP2 PUSH1 0x1 EQ ISZERO PUSH2 0x35F JUMPI PUSH1 0x2 DUP1 SLOAD PUSH2 0x2C1 SWAP1 PUSH1 0x1 SWAP1 PUSH2 0xCE7 JUMP JUMPDEST DUP2 SLOAD DUP2 LT PUSH2 0x2D1 JUMPI PUSH2 0x2D1 PUSH2 0xCA0 JUMP JUMPDEST PUSH1 0x0 SWAP2 DUP3 MSTORE PUSH1 0x20 SWAP1 SWAP2 KECCAK256 ADD SLOAD PUSH1 0x2 DUP1 SLOAD PUSH1 0x1 PUSH1 0x1 PUSH1 0xA0 SHL SUB SWAP1 SWAP3 AND SWAP2 DUP4 SWAP1 DUP2 LT PUSH2 0x2FD JUMPI PUSH2 0x2FD PUSH2 0xCA0 JUMP JUMPDEST SWAP1 PUSH1 0x0 MSTORE PUSH1 0x20 PUSH1 0x0 KECCAK256 ADD PUSH1 0x0 PUSH2 0x100 EXP DUP2 SLOAD DUP2 PUSH1 0x1 PUSH1 0x1 PUSH1 0xA0 SHL SUB MUL NOT AND SWAP1 DUP4 PUSH1 0x1 PUSH1 0x1 PUSH1 0xA0 SHL SUB AND MUL OR SWAP1 SSTORE POP PUSH1 0x2 DUP1 SLOAD DUP1 PUSH2 0x33C JUMPI PUSH2 0x33C PUSH2 0xCFE JUMP JUMPDEST PUSH1 0x0 DUP3 DUP2 MSTORE PUSH1 0x20 SWAP1 KECCAK256 DUP2 ADD PUSH1 0x0 NOT SWAP1 DUP2 ADD DUP1 SLOAD PUSH1 0x1 PUSH1 0x1 PUSH1 0xA0 SHL SUB NOT AND SWAP1 SSTORE ADD SWAP1 SSTORE JUMPDEST PUSH1 0x0 JUMPDEST PUSH1 0x1 SLOAD DUP2 LT ISZERO PUSH2 0x3A7 JUMPI DUP5 PUSH1 0x1 DUP3 DUP2 SLOAD DUP2 LT PUSH2 0x380 JUMPI PUSH2 0x380 PUSH2 0xCA0 JUMP JUMPDEST SWAP1 PUSH1 0x0 MSTORE PUSH1 0x20 PUSH1 0x0 KECCAK256 ADD SLOAD EQ ISZERO PUSH2 0x395 JUMPI DUP1 SWAP2 POP JUMPDEST DUP1 PUSH2 0x39F DUP2 PUSH2 0xCCC JUMP JUMPDEST SWAP2 POP POP PUSH2 0x362 JUMP JUMPDEST POP PUSH1 0x1 DUP1 SLOAD PUSH2 0x3B7 SWAP1 DUP3 SWAP1 PUSH2 0xCE7 JUMP JUMPDEST DUP2 SLOAD DUP2 LT PUSH2 0x3C7 JUMPI PUSH2 0x3C7 PUSH2 0xCA0 JUMP JUMPDEST SWAP1 PUSH1 0x0 MSTORE PUSH1 0x20 PUSH1 0x0 KECCAK256 ADD SLOAD PUSH1 0x1 DUP3 DUP2 SLOAD DUP2 LT PUSH2 0x3E5 JUMPI PUSH2 0x3E5 PUSH2 0xCA0 JUMP JUMPDEST PUSH1 0x0 SWAP2 DUP3 MSTORE PUSH1 0x20 SWAP1 SWAP2 KECCAK256 ADD SSTORE PUSH1 0x1 DUP1 SLOAD DUP1 PUSH2 0x402 JUMPI PUSH2 0x402 PUSH2 0xCFE JUMP JUMPDEST PUSH1 0x0 DUP3 DUP2 MSTORE PUSH1 0x20 DUP1 DUP3 KECCAK256 DUP4 ADD PUSH1 0x0 NOT SWAP1 DUP2 ADD DUP4 SWAP1 SSTORE SWAP1 SWAP3 ADD SWAP1 SWAP3 SSTORE SWAP5 DUP2 MSTORE SWAP4 DUP5 SWAP1 MSTORE POP POP PUSH1 0x40 DUP3 KECCAK256 DUP3 DUP2 SSTORE PUSH1 0x1 DUP2 ADD DUP1 SLOAD PUSH1 0x1 PUSH1 0x1 PUSH1 0xA0 SHL SUB NOT AND SWAP1 SSTORE PUSH1 0x2 DUP2 ADD DUP4 SWAP1 SSTORE PUSH1 0x3 DUP2 ADD DUP4 SWAP1 SSTORE PUSH1 0x4 DUP2 ADD SWAP3 SWAP1 SWAP3 SSTORE POP PUSH1 0x5 ADD DUP1 SLOAD PUSH1 0xFF NOT AND SWAP1 SSTORE JUMP JUMPDEST PUSH1 0x0 PUSH2 0x46E DUP3 PUSH2 0x950 JUMP JUMPDEST SWAP1 POP PUSH2 0x482 DUP2 PUSH1 0x20 ADD MLOAD DUP3 PUSH1 0x40 ADD MLOAD PUSH2 0xACA JUMP JUMPDEST DUP1 MLOAD PUSH2 0x48D SWAP1 PUSH2 0x223 JUMP JUMPDEST POP POP JUMP JUMPDEST PUSH1 0x60 PUSH1 0x0 DUP1 JUMPDEST PUSH1 0x1 SLOAD DUP2 LT ISZERO PUSH2 0x50F JUMPI DUP4 PUSH1 0x1 PUSH1 0x1 PUSH1 0xA0 SHL SUB AND PUSH1 0x0 DUP1 PUSH1 0x1 DUP5 DUP2 SLOAD DUP2 LT PUSH2 0x4C1 JUMPI PUSH2 0x4C1 PUSH2 0xCA0 JUMP JUMPDEST PUSH1 0x0 SWAP2 DUP3 MSTORE PUSH1 0x20 DUP1 DUP4 KECCAK256 SWAP1 SWAP2 ADD SLOAD DUP4 MSTORE DUP3 ADD SWAP3 SWAP1 SWAP3 MSTORE PUSH1 0x40 ADD SWAP1 KECCAK256 PUSH1 0x1 ADD SLOAD PUSH1 0x1 PUSH1 0x1 PUSH1 0xA0 SHL SUB AND EQ ISZERO PUSH2 0x4FD JUMPI DUP2 PUSH2 0x4F9 DUP2 PUSH2 0xCCC JUMP JUMPDEST SWAP3 POP POP JUMPDEST DUP1 PUSH2 0x507 DUP2 PUSH2 0xCCC JUMP JUMPDEST SWAP2 POP POP PUSH2 0x497 JUMP JUMPDEST POP PUSH1 0x0 DUP2 PUSH8 0xFFFFFFFFFFFFFFFF DUP2 GT ISZERO PUSH2 0x52B JUMPI PUSH2 0x52B PUSH2 0xD14 JUMP JUMPDEST PUSH1 0x40 MLOAD SWAP1 DUP1 DUP3 MSTORE DUP1 PUSH1 0x20 MUL PUSH1 0x20 ADD DUP3 ADD PUSH1 0x40 MSTORE DUP1 ISZERO PUSH2 0x564 JUMPI DUP2 PUSH1 0x20 ADD JUMPDEST PUSH2 0x551 PUSH2 0xB05 JUMP JUMPDEST DUP2 MSTORE PUSH1 0x20 ADD SWAP1 PUSH1 0x1 SWAP1 SUB SWAP1 DUP2 PUSH2 0x549 JUMPI SWAP1 POP JUMPDEST POP SWAP1 POP PUSH1 0x0 DUP1 JUMPDEST PUSH1 0x1 SLOAD DUP2 LT ISZERO PUSH2 0x627 JUMPI DUP6 PUSH1 0x1 PUSH1 0x1 PUSH1 0xA0 SHL SUB AND PUSH1 0x0 DUP1 PUSH1 0x1 DUP5 DUP2 SLOAD DUP2 LT PUSH2 0x595 JUMPI PUSH2 0x595 PUSH2 0xCA0 JUMP JUMPDEST PUSH1 0x0 SWAP2 DUP3 MSTORE PUSH1 0x20 DUP1 DUP4 KECCAK256 SWAP1 SWAP2 ADD SLOAD DUP4 MSTORE DUP3 ADD SWAP3 SWAP1 SWAP3 MSTORE PUSH1 0x40 ADD SWAP1 KECCAK256 PUSH1 0x1 ADD SLOAD PUSH1 0x1 PUSH1 0x1 PUSH1 0xA0 SHL SUB AND EQ ISZERO PUSH2 0x615 JUMPI PUSH2 0x5E9 PUSH1 0x1 DUP3 DUP2 SLOAD DUP2 LT PUSH2 0x5D9 JUMPI PUSH2 0x5D9 PUSH2 0xCA0 JUMP JUMPDEST SWAP1 PUSH1 0x0 MSTORE PUSH1 0x20 PUSH1 0x0 KECCAK256 ADD SLOAD PUSH2 0x950 JUMP JUMPDEST DUP4 DUP4 DUP2 MLOAD DUP2 LT PUSH2 0x5FB JUMPI PUSH2 0x5FB PUSH2 0xCA0 JUMP JUMPDEST PUSH1 0x20 MUL PUSH1 0x20 ADD ADD DUP2 SWAP1 MSTORE POP DUP2 DUP1 PUSH2 0x611 SWAP1 PUSH2 0xCCC JUMP JUMPDEST SWAP3 POP POP JUMPDEST DUP1 PUSH2 0x61F DUP2 PUSH2 0xCCC JUMP JUMPDEST SWAP2 POP POP PUSH2 0x56B JUMP JUMPDEST POP SWAP1 SWAP5 SWAP4 POP POP POP POP JUMP JUMPDEST PUSH1 0x0 CALLER TIMESTAMP PUSH2 0x63E PUSH1 0x1 SLOAD SWAP1 JUMP JUMPDEST PUSH1 0x40 DUP1 MLOAD PUSH1 0x1 PUSH1 0x1 PUSH1 0xA0 SHL SUB SWAP1 SWAP5 AND PUSH1 0x20 DUP6 ADD MSTORE DUP4 ADD SWAP2 SWAP1 SWAP2 MSTORE PUSH1 0x60 DUP3 ADD MSTORE PUSH1 0x80 ADD PUSH1 0x40 DUP1 MLOAD DUP1 DUP4 SUB PUSH1 0x1F NOT ADD DUP2 MSTORE DUP3 DUP3 MSTORE DUP1 MLOAD PUSH1 0x20 SWAP2 DUP3 ADD KECCAK256 PUSH1 0xC0 DUP5 ADD DUP4 MSTORE DUP1 DUP5 MSTORE CALLER DUP3 DUP6 ADD SWAP1 DUP2 MSTORE CALLVALUE DUP6 DUP6 ADD SWAP1 DUP2 MSTORE TIMESTAMP PUSH1 0x60 DUP8 ADD SWAP1 DUP2 MSTORE PUSH1 0x80 DUP8 ADD DUP10 DUP2 MSTORE PUSH1 0x1 PUSH1 0xA0 DUP10 ADD DUP2 DUP2 MSTORE PUSH1 0x0 DUP8 DUP2 MSTORE SWAP8 DUP9 SWAP1 MSTORE SWAP8 DUP8 KECCAK256 DUP10 MLOAD DUP2 SSTORE SWAP5 MLOAD DUP6 DUP3 ADD DUP1 SLOAD PUSH1 0x1 PUSH1 0x1 PUSH1 0xA0 SHL SUB NOT AND PUSH1 0x1 PUSH1 0x1 PUSH1 0xA0 SHL SUB SWAP1 SWAP3 AND SWAP2 SWAP1 SWAP2 OR SWAP1 SSTORE SWAP3 MLOAD PUSH1 0x2 DUP6 ADD SSTORE SWAP1 MLOAD PUSH1 0x3 DUP5 ADD SSTORE MLOAD PUSH1 0x4 DUP4 ADD SSTORE SWAP4 MLOAD PUSH1 0x5 SWAP1 SWAP2 ADD DUP1 SLOAD PUSH1 0xFF NOT AND SWAP2 ISZERO ISZERO SWAP2 SWAP1 SWAP2 OR SWAP1 SSTORE DUP3 SLOAD DUP1 DUP5 ADD DUP5 SSTORE SWAP3 DUP3 MSTORE PUSH32 0xB10E2D527612073B26EECDFD717E6A320CF44B4AFAC2B0732D9FCBE2B7FA0CF6 SWAP1 SWAP3 ADD DUP3 SWAP1 SSTORE SWAP1 SWAP3 POP DUP1 JUMPDEST PUSH1 0x2 SLOAD DUP2 LT ISZERO PUSH2 0x792 JUMPI CALLER PUSH1 0x1 PUSH1 0x1 PUSH1 0xA0 SHL SUB AND PUSH1 0x2 DUP3 DUP2 SLOAD DUP2 LT PUSH2 0x760 JUMPI PUSH2 0x760 PUSH2 0xCA0 JUMP JUMPDEST PUSH1 0x0 SWAP2 DUP3 MSTORE PUSH1 0x20 SWAP1 SWAP2 KECCAK256 ADD SLOAD PUSH1 0x1 PUSH1 0x1 PUSH1 0xA0 SHL SUB AND EQ ISZERO PUSH2 0x780 JUMPI PUSH1 0x1 SWAP2 POP JUMPDEST DUP1 PUSH2 0x78A DUP2 PUSH2 0xCCC JUMP JUMPDEST SWAP2 POP POP PUSH2 0x739 JUMP JUMPDEST POP DUP1 PUSH2 0x7DB JUMPI PUSH1 0x2 DUP1 SLOAD PUSH1 0x1 DUP2 ADD DUP3 SSTORE PUSH1 0x0 SWAP2 SWAP1 SWAP2 MSTORE PUSH32 0x405787FA12A823E0F2B7631CC41B3BA8828B3321CA811111FA75CD3AA3BB5ACE ADD DUP1 SLOAD PUSH1 0x1 PUSH1 0x1 PUSH1 0xA0 SHL SUB NOT AND CALLER OR SWAP1 SSTORE JUMPDEST POP POP POP POP JUMP JUMPDEST PUSH1 0x60 PUSH1 0x2 DUP1 SLOAD DUP1 PUSH1 0x20 MUL PUSH1 0x20 ADD PUSH1 0x40 MLOAD SWAP1 DUP2 ADD PUSH1 0x40 MSTORE DUP1 SWAP3 SWAP2 SWAP1 DUP2 DUP2 MSTORE PUSH1 0x20 ADD DUP3 DUP1 SLOAD DUP1 ISZERO PUSH2 0x839 JUMPI PUSH1 0x20 MUL DUP3 ADD SWAP2 SWAP1 PUSH1 0x0 MSTORE PUSH1 0x20 PUSH1 0x0 KECCAK256 SWAP1 JUMPDEST DUP2 SLOAD PUSH1 0x1 PUSH1 0x1 PUSH1 0xA0 SHL SUB AND DUP2 MSTORE PUSH1 0x1 SWAP1 SWAP2 ADD SWAP1 PUSH1 0x20 ADD DUP1 DUP4 GT PUSH2 0x81B JUMPI JUMPDEST POP POP POP POP POP SWAP1 POP SWAP1 JUMP JUMPDEST PUSH1 0x60 PUSH1 0x1 DUP1 SLOAD DUP1 PUSH1 0x20 MUL PUSH1 0x20 ADD PUSH1 0x40 MLOAD SWAP1 DUP2 ADD PUSH1 0x40 MSTORE DUP1 SWAP3 SWAP2 SWAP1 DUP2 DUP2 MSTORE PUSH1 0x20 ADD DUP3 DUP1 SLOAD DUP1 ISZERO PUSH2 0x839 JUMPI PUSH1 0x20 MUL DUP3 ADD SWAP2 SWAP1 PUSH1 0x0 MSTORE PUSH1 0x20 PUSH1 0x0 KECCAK256 SWAP1 JUMPDEST DUP2 SLOAD DUP2 MSTORE PUSH1 0x20 ADD SWAP1 PUSH1 0x1 ADD SWAP1 DUP1 DUP4 GT PUSH2 0x87D JUMPI POP POP POP POP POP SWAP1 POP SWAP1 JUMP JUMPDEST PUSH1 0x1 SLOAD PUSH1 0x60 SWAP1 PUSH1 0x0 SWAP1 PUSH8 0xFFFFFFFFFFFFFFFF DUP2 GT ISZERO PUSH2 0x8BB JUMPI PUSH2 0x8BB PUSH2 0xD14 JUMP JUMPDEST PUSH1 0x40 MLOAD SWAP1 DUP1 DUP3 MSTORE DUP1 PUSH1 0x20 MUL PUSH1 0x20 ADD DUP3 ADD PUSH1 0x40 MSTORE DUP1 ISZERO PUSH2 0x8F4 JUMPI DUP2 PUSH1 0x20 ADD JUMPDEST PUSH2 0x8E1 PUSH2 0xB05 JUMP JUMPDEST DUP2 MSTORE PUSH1 0x20 ADD SWAP1 PUSH1 0x1 SWAP1 SUB SWAP1 DUP2 PUSH2 0x8D9 JUMPI SWAP1 POP JUMPDEST POP SWAP1 POP PUSH1 0x0 JUMPDEST PUSH1 0x1 SLOAD DUP2 LT ISZERO PUSH2 0x94A JUMPI PUSH2 0x91A PUSH1 0x1 DUP3 DUP2 SLOAD DUP2 LT PUSH2 0x5D9 JUMPI PUSH2 0x5D9 PUSH2 0xCA0 JUMP JUMPDEST DUP3 DUP3 DUP2 MLOAD DUP2 LT PUSH2 0x92C JUMPI PUSH2 0x92C PUSH2 0xCA0 JUMP JUMPDEST PUSH1 0x20 MUL PUSH1 0x20 ADD ADD DUP2 SWAP1 MSTORE POP DUP1 DUP1 PUSH2 0x942 SWAP1 PUSH2 0xCCC JUMP JUMPDEST SWAP2 POP POP PUSH2 0x8FA JUMP JUMPDEST POP SWAP2 SWAP1 POP JUMP JUMPDEST PUSH2 0x958 PUSH2 0xB05 JUMP JUMPDEST PUSH1 0x0 DUP3 DUP2 MSTORE PUSH1 0x20 DUP2 DUP2 MSTORE PUSH1 0x40 DUP1 DUP4 KECCAK256 DUP2 MLOAD PUSH1 0xC0 DUP2 ADD DUP4 MSTORE DUP2 SLOAD DUP2 MSTORE PUSH1 0x1 DUP3 ADD SLOAD PUSH1 0x1 PUSH1 0x1 PUSH1 0xA0 SHL SUB AND SWAP4 DUP2 ADD SWAP4 SWAP1 SWAP4 MSTORE PUSH1 0x2 DUP2 ADD SLOAD SWAP2 DUP4 ADD SWAP2 SWAP1 SWAP2 MSTORE PUSH1 0x3 DUP2 ADD SLOAD PUSH1 0x60 DUP4 ADD MSTORE PUSH1 0x4 DUP2 ADD SLOAD PUSH1 0x80 DUP4 ADD DUP2 SWAP1 MSTORE PUSH1 0x5 SWAP1 SWAP2 ADD SLOAD PUSH1 0xFF AND ISZERO ISZERO PUSH1 0xA0 DUP4 ADD MSTORE SWAP1 SWAP2 SWAP1 PUSH2 0x9C8 SWAP1 PUSH1 0x3C PUSH2 0xD2A JUMP JUMPDEST PUSH2 0x9D3 SWAP1 PUSH1 0x3C PUSH2 0xD2A JUMP JUMPDEST PUSH2 0x9DE SWAP1 PUSH1 0x18 PUSH2 0xD2A JUMP JUMPDEST DUP3 PUSH1 0x60 ADD MLOAD PUSH2 0x9ED SWAP2 SWAP1 PUSH2 0xD49 JUMP JUMPDEST TIMESTAMP LT PUSH2 0x9FB JUMPI POP PUSH1 0x1 PUSH2 0x9FF JUMP JUMPDEST POP PUSH1 0x0 JUMPDEST ISZERO ISZERO PUSH1 0xA0 DUP3 ADD MSTORE SWAP3 SWAP2 POP POP JUMP JUMPDEST PUSH1 0x0 PUSH2 0xA16 PUSH2 0x89A JUMP JUMPDEST SWAP1 POP PUSH1 0x0 JUMPDEST DUP2 MLOAD DUP2 LT ISZERO PUSH2 0x48D JUMPI DUP2 DUP2 DUP2 MLOAD DUP2 LT PUSH2 0xA36 JUMPI PUSH2 0xA36 PUSH2 0xCA0 JUMP JUMPDEST PUSH1 0x20 MUL PUSH1 0x20 ADD ADD MLOAD PUSH1 0xA0 ADD MLOAD ISZERO ISZERO PUSH1 0x1 ISZERO ISZERO EQ ISZERO PUSH2 0xAB8 JUMPI PUSH2 0xA92 DUP3 DUP3 DUP2 MLOAD DUP2 LT PUSH2 0xA63 JUMPI PUSH2 0xA63 PUSH2 0xCA0 JUMP JUMPDEST PUSH1 0x20 MUL PUSH1 0x20 ADD ADD MLOAD PUSH1 0x20 ADD MLOAD DUP4 DUP4 DUP2 MLOAD DUP2 LT PUSH2 0xA81 JUMPI PUSH2 0xA81 PUSH2 0xCA0 JUMP JUMPDEST PUSH1 0x20 MUL PUSH1 0x20 ADD ADD MLOAD PUSH1 0x40 ADD MLOAD PUSH2 0xACA JUMP JUMPDEST PUSH2 0xAB8 DUP3 DUP3 DUP2 MLOAD DUP2 LT PUSH2 0xAA7 JUMPI PUSH2 0xAA7 PUSH2 0xCA0 JUMP JUMPDEST PUSH1 0x20 MUL PUSH1 0x20 ADD ADD MLOAD PUSH1 0x0 ADD MLOAD PUSH2 0x223 JUMP JUMPDEST DUP1 PUSH2 0xAC2 DUP2 PUSH2 0xCCC JUMP JUMPDEST SWAP2 POP POP PUSH2 0xA1B JUMP JUMPDEST PUSH1 0x40 MLOAD PUSH1 0x1 PUSH1 0x1 PUSH1 0xA0 SHL SUB DUP4 AND SWAP1 DUP3 ISZERO PUSH2 0x8FC MUL SWAP1 DUP4 SWAP1 PUSH1 0x0 DUP2 DUP2 DUP2 DUP6 DUP9 DUP9 CALL SWAP4 POP POP POP POP ISZERO DUP1 ISZERO PUSH2 0xB00 JUMPI RETURNDATASIZE PUSH1 0x0 DUP1 RETURNDATACOPY RETURNDATASIZE PUSH1 0x0 REVERT JUMPDEST POP POP POP JUMP JUMPDEST PUSH1 0x40 DUP1 MLOAD PUSH1 0xC0 DUP2 ADD DUP3 MSTORE PUSH1 0x0 DUP1 DUP3 MSTORE PUSH1 0x20 DUP3 ADD DUP2 SWAP1 MSTORE SWAP2 DUP2 ADD DUP3 SWAP1 MSTORE PUSH1 0x60 DUP2 ADD DUP3 SWAP1 MSTORE PUSH1 0x80 DUP2 ADD DUP3 SWAP1 MSTORE PUSH1 0xA0 DUP2 ADD SWAP2 SWAP1 SWAP2 MSTORE SWAP1 JUMP JUMPDEST PUSH1 0x0 PUSH1 0x20 DUP3 DUP5 SUB SLT ISZERO PUSH2 0xB4C JUMPI PUSH1 0x0 DUP1 REVERT JUMPDEST POP CALLDATALOAD SWAP2 SWAP1 POP JUMP JUMPDEST PUSH1 0x0 PUSH1 0x20 DUP3 DUP5 SUB SLT ISZERO PUSH2 0xB65 JUMPI PUSH1 0x0 DUP1 REVERT JUMPDEST DUP2 CALLDATALOAD PUSH1 0x1 PUSH1 0x1 PUSH1 0xA0 SHL SUB DUP2 AND DUP2 EQ PUSH2 0xB7C JUMPI PUSH1 0x0 DUP1 REVERT JUMPDEST SWAP4 SWAP3 POP POP POP JUMP JUMPDEST DUP1 MLOAD DUP3 MSTORE PUSH1 0x20 DUP1 DUP3 ADD MLOAD PUSH1 0x1 PUSH1 0x1 PUSH1 0xA0 SHL SUB AND SWAP1 DUP4 ADD MSTORE PUSH1 0x40 DUP1 DUP3 ADD MLOAD SWAP1 DUP4 ADD MSTORE PUSH1 0x60 DUP1 DUP3 ADD MLOAD SWAP1 DUP4 ADD MSTORE PUSH1 0x80 DUP1 DUP3 ADD MLOAD SWAP1 DUP4 ADD MSTORE PUSH1 0xA0 SWAP1 DUP2 ADD MLOAD ISZERO ISZERO SWAP2 ADD MSTORE JUMP JUMPDEST PUSH1 0x20 DUP1 DUP3 MSTORE DUP3 MLOAD DUP3 DUP3 ADD DUP2 SWAP1 MSTORE PUSH1 0x0 SWAP2 SWAP1 DUP5 DUP3 ADD SWAP1 PUSH1 0x40 DUP6 ADD SWAP1 DUP5 JUMPDEST DUP2 DUP2 LT ISZERO PUSH2 0xC07 JUMPI PUSH2 0xBF4 DUP4 DUP6 MLOAD PUSH2 0xB83 JUMP JUMPDEST SWAP3 DUP5 ADD SWAP3 PUSH1 0xC0 SWAP3 SWAP1 SWAP3 ADD SWAP2 PUSH1 0x1 ADD PUSH2 0xBE1 JUMP JUMPDEST POP SWAP1 SWAP7 SWAP6 POP POP POP POP POP POP JUMP JUMPDEST PUSH1 0x20 DUP1 DUP3 MSTORE DUP3 MLOAD DUP3 DUP3 ADD DUP2 SWAP1 MSTORE PUSH1 0x0 SWAP2 SWAP1 DUP5 DUP3 ADD SWAP1 PUSH1 0x40 DUP6 ADD SWAP1 DUP5 JUMPDEST DUP2 DUP2 LT ISZERO PUSH2 0xC07 JUMPI DUP4 MLOAD PUSH1 0x1 PUSH1 0x1 PUSH1 0xA0 SHL SUB AND DUP4 MSTORE SWAP3 DUP5 ADD SWAP3 SWAP2 DUP5 ADD SWAP2 PUSH1 0x1 ADD PUSH2 0xC2F JUMP JUMPDEST PUSH1 0x20 DUP1 DUP3 MSTORE DUP3 MLOAD DUP3 DUP3 ADD DUP2 SWAP1 MSTORE PUSH1 0x0 SWAP2 SWAP1 DUP5 DUP3 ADD SWAP1 PUSH1 0x40 DUP6 ADD SWAP1 DUP5 JUMPDEST DUP2 DUP2 LT ISZERO PUSH2 0xC07 JUMPI DUP4 MLOAD DUP4 MSTORE SWAP3 DUP5 ADD SWAP3 SWAP2 DUP5 ADD SWAP2 PUSH1 0x1 ADD PUSH2 0xC70 JUMP JUMPDEST PUSH1 0xC0 DUP2 ADD PUSH2 0xC9A DUP3 DUP5 PUSH2 0xB83 JUMP JUMPDEST SWAP3 SWAP2 POP POP JUMP JUMPDEST PUSH4 0x4E487B71 PUSH1 0xE0 SHL PUSH1 0x0 MSTORE PUSH1 0x32 PUSH1 0x4 MSTORE PUSH1 0x24 PUSH1 0x0 REVERT JUMPDEST PUSH4 0x4E487B71 PUSH1 0xE0 SHL PUSH1 0x0 MSTORE PUSH1 0x11 PUSH1 0x4 MSTORE PUSH1 0x24 PUSH1 0x0 REVERT JUMPDEST PUSH1 0x0 PUSH1 0x0 NOT DUP3 EQ ISZERO PUSH2 0xCE0 JUMPI PUSH2 0xCE0 PUSH2 0xCB6 JUMP JUMPDEST POP PUSH1 0x1 ADD SWAP1 JUMP JUMPDEST PUSH1 0x0 DUP3 DUP3 LT ISZERO PUSH2 0xCF9 JUMPI PUSH2 0xCF9 PUSH2 0xCB6 JUMP JUMPDEST POP SUB SWAP1 JUMP JUMPDEST PUSH4 0x4E487B71 PUSH1 0xE0 SHL PUSH1 0x0 MSTORE PUSH1 0x31 PUSH1 0x4 MSTORE PUSH1 0x24 PUSH1 0x0 REVERT JUMPDEST PUSH4 0x4E487B71 PUSH1 0xE0 SHL PUSH1 0x0 MSTORE PUSH1 0x41 PUSH1 0x4 MSTORE PUSH1 0x24 PUSH1 0x0 REVERT JUMPDEST PUSH1 0x0 DUP2 PUSH1 0x0 NOT DIV DUP4 GT DUP3 ISZERO ISZERO AND ISZERO PUSH2 0xD44 JUMPI PUSH2 0xD44 PUSH2 0xCB6 JUMP JUMPDEST POP MUL SWAP1 JUMP JUMPDEST PUSH1 0x0 DUP3 NOT DUP3 GT ISZERO PUSH2 0xD5C JUMPI PUSH2 0xD5C PUSH2 0xCB6 JUMP JUMPDEST POP ADD SWAP1 JUMP INVALID LOG2 PUSH5 0x6970667358 0x22 SLT KECCAK256 0x1E CALLDATALOAD SWAP11 BYTE 0xD5 SMOD DUP16 0xE1 RETURNDATACOPY 0xAC 0x2D 0x5F REVERT 0xA9 0xB5 DELEGATECALL BALANCE SWAP12 0xF CALLVALUE SWAP9 0x4C DELEGATECALL SWAP3 0xE1 OR PUSH23 0xDB6CFC9A7464736F6C634300080C003300000000000000 ",
  "sha1": "b9f150c9d506e773e590971826a9d5cd14d868f0",
  "source": "// SPDX-License-Identifier: MIT\n\npragma solidity ^0.8.10;\n\nstruct Deposit {\n    bytes32 key;\n    address depositor;\n    uint256 amount;\n    uint256 timestamp;\n    uint duration_in_days;\n    bool expired;\n}\n\n\ncontract CDeposit {\n\n    mapping(bytes32 => Deposit) internal map;\n    \n    bytes32[] internal keyList;\n    address[] internal addressList;\n\n    event Debug (uint);\n\n    function addDeposit(uint duration_in_days) external payable {\n        bytes32 _key = keccak256(abi.encode(msg.sender, block.timestamp, sizeDeposit()));\n        Deposit memory _deposit = Deposit(_key, msg.sender, msg.value, block.timestamp, duration_in_days, true);\n        map[_key] = _deposit;\n        keyList.push(_key);\n        bool found = false;\n        for (uint i = 0; i < addressList.length; i++) {\n            if (addressList[i] == msg.sender) {\n                found = true;\n            }\n        }\n        if (found==false) addressList.push(msg.sender);\n    }\n\n    function removeDeposit(bytes32 _key) public  {\n        address _depositor = map[_key].depositor;\n\n        uint _count = 0;\n        uint _id = 0;\n        for (uint i = 0; i < addressList.length; i++) {\n            if (addressList[i] == _depositor) {\n                _count ++;\n                _id = i;\n            }\n        }\n        if (_count==1) {\n            addressList[_id] = addressList[addressList.length - 1];\n            addressList.pop();\n        }\n\n        for (uint i = 0; i < keyList.length; i++) {\n            if (keyList[i] == _key) {\n                _id = i;\n            }\n        }\n        keyList[_id] = keyList[keyList.length - 1];\n        keyList.pop();\n        \n        delete map[_key];\n    }\n    \n    function containsDeposit(bytes32 _key) public view returns (bool) {\n        return map[_key].timestamp != 0;\n    }\n    \n    function handbackExpiredDeposits() public {\n        Deposit[] memory _deposits = getAllDeposits();\n        for (uint i = 0; i < _deposits.length; i++) {\n            if (_deposits[i].expired == true) {\n                transferAmount(_deposits[i].depositor, _deposits[i].amount);\n                removeDeposit(_deposits[i].key);\n            }\n        }\n    }\n\n    function handbackDeposit(bytes32 _key) public {\n        Deposit memory _deposit = getDepositByKey(_key);\n        transferAmount(_deposit.depositor, _deposit.amount);\n        removeDeposit(_deposit.key);\n    }\n\n    function transferAmount(address receiver, uint256 amount) internal {\n        payable(receiver).transfer(amount);\n    }\n    \n    function getDepositByKey(bytes32 _key) public view returns (Deposit memory) {\n        Deposit memory _deposit = map[_key];\n        bool _expired = false;\n        if (block.timestamp >= _deposit.timestamp + _deposit.duration_in_days * 60 * 60 * 24)\n            _expired = true;\n        else\n            _expired = false;\n        _deposit.expired = _expired;\n        return _deposit;\n    }\n\n    function sizeDeposit() public view returns (uint) {\n        return uint(keyList.length);\n    }\n\n    function getDepositKeys() public view returns (bytes32[] memory) {\n        return keyList;\n    }\n\n   function getDepositAddresses() public view returns (address[] memory) {\n        return addressList;\n    }\n\n    function getDepositbyAddress(address _address) public view returns (Deposit[] memory) {\n        uint256 _resultCount;\n\n        for (uint i = 0; i < keyList.length; i++) {\n            if (map[keyList[i]].depositor == _address) {\n                _resultCount++;\n            }\n        }\n        \n        Deposit[] memory _deposits = new Deposit[](_resultCount);\n        uint256 j;\n\n        for (uint i = 0; i < keyList.length; i++) {\n            if (map[keyList[i]].depositor == _address) {\n                _deposits[j] = getDepositByKey(keyList[i]);\n                j++;\n            }\n        }\n        return _deposits;\n    }\n\n    function getAllDeposits() public view returns (Deposit[] memory) {\n        \n        Deposit[] memory _deposits = new Deposit[](keyList.length);\n\n        for (uint i = 0; i < keyList.length; i++) {\n            _deposits[i] = getDepositByKey(keyList[i]);\n        }\n        return _deposits;\n    }\n    \n}",
  "sourcePath": "contracts/CDeposit.sol",
  "type": "contract"
}